:100000000C942A000C94F4130C944F150C94801546
:100010000C9447000C9447000C9447000C94470044
:100020000C9447000C9447000C94B7180C94861855
:100030000C9456170C9447000C9447000C944700FE
:100040000C9447000C9447000C9447000C94470014
:100050000C94470011241FBECFE5D8E0DEBFCDBF12
:1000600014E0A0E6B0E0E8E4FAE302C005900D92E7
:10007000AE30B107D9F724E0AEE0B4E001C01D9284
:10008000A931B207E1F70E9449000C94221D0C949B
:100090000000CF93DF93CDB7DEB7C654D1090FB6BA
:1000A000F894DEBF0FBECDBF61E088E00E949412DD
:1000B00061E080E00E94941261E081E00E9494126D
:1000C00061E082E00E94941261E083E00E94941259
:1000D00061E084E00E9494120E94E6150E940F1ACB
:1000E00081E00E94C2150E94B11583E00E9489132D
:1000F00085E0EBE0F3E0DE01D49601900D928A9565
:10010000E1F781E392E39AAF89AF83E394E39CAF95
:100110008BAF61E08BE10E9494121A82198285C034
:1001200049815A819E012C5C3F4F89819A81820FBF
:10013000931FFC018081BA010E94080C80E090E0CE
:10014000A0EAB1E48A8B9B8BAC8BBD8B20E030E0C6
:100150004AE755E46A897B898C899D890E94841CC1
:10016000DC01CB018E8B9F8BA88FB98F20E030E014
:1001700040E85FE36E897F89888D998D0E94271BF7
:1001800088232CF481E090E09B8F8A8F3FC020E091
:100190003FEF4FE757E46E897F89888D998D0E94E4
:1001A0007F1C18164CF520E030E040E251E46A89EB
:1001B0007B898C899D890E94841CDC01CB01BC0158
:1001C000CD010E949E1BDC01CB019B8F8A8F0FC04B
:1001D00080E991E09D8F8C8F8C8D9D8D0197F1F73B
:1001E0009D8F8C8F8A8D9B8D01979B8F8A8F8A8D97
:1001F0009B8D892B69F714C06E897F89888D998DB5
:100200000E949E1BDC01CB019B8F8A8F8A8D9B8D68
:100210009F8F8E8F8E8D9F8D0197F1F79F8F8E8F81
:1002200089819A8101969A83898389819A81059728
:100230000CF476CF1C821B8285E090E09E838D8338
:100240008AC04D815E819E01275C3F4F8B819C81DE
:10025000820F931FFC018081BA010E94080C80E08C
:1002600090E0A0EAB1E48A879B87AC87BD8720E055
:1002700030E04AE755E46A857B858C859D850E9440
:10028000841CDC01CB0188A399A3AAA3BBA320E013
:1002900030E040E85FE368A179A18AA19BA10E94B8
:1002A000271B88232CF481E090E09DA38CA33FC002
:1002B00020E03FEF4FE757E468A179A18AA19BA115
:1002C0000E947F1C18164CF520E030E040E251E41B
:1002D0006A857B858C859D850E94841CDC01CB0111
:1002E000BC01CD010E949E1BDC01CB019DA38CA310
:1002F0000FC080E991E09FA38EA38EA19FA10197DB
:10030000F1F79FA38EA38CA19DA101979DA38CA320
:100310008CA19DA1892B69F714C068A179A18AA13C
:100320009BA10E949E1BDC01CB019DA38CA38CA1F1
:100330009DA199A788A788A599A50197F1F799A7E5
:1003400088A78B819C8101969C838B838D819E8164
:1003500001969E838D838B819C8104970CF471CFD1
:100360001F8219868F81833009F40EC20E944004D7
:10037000882309F401C21F8280E690E00E946D1A72
:1003800081E08887F4C180E790E00E946D1ACE0179
:10039000CD960E94A704CE01CD9660E271E00E9446
:1003A000191D892B71F40E94E704882329F082E249
:1003B00091E00E946D1ADBC18CE391E00E946D1AFE
:1003C000D6C1CE01CD9664E471E00E94191D892B3F
:1003D00071F40E946106882329F086E491E00E946E
:1003E0006D1AC5C18CE391E00E946D1AC0C1CE01A7
:1003F000CD9660E671E00E94191D892B71F40E9470
:10040000DB07882329F082E691E00E946D1AAFC1D4
:100410008EE791E00E946D1AAAC1CE01CD9666E8E2
:1004200071E00E94191D892B71F40E94BD09882377
:1004300029F082E691E00E946D1A99C18EE791E061
:100440000E946D1A94C1CE01CD9668E871E00E94B9
:10045000191D892B09F07DC10E94530D81E0898708
:1004600073C18AE891E00E946D1ACE01CD960E9478
:10047000A704CE01CD9664E572E00E94191D892B78
:1004800061F480E00E94DC0B62E08AE00E9483114C
:1004900088E592E00E94D01057C1CE01CD966FE55D
:1004A00072E00E94191D892B61F481E00E94DC0B2F
:1004B00062E08AE00E94831181E692E00E94D010FF
:1004C00043C1CE01CD9668E672E00E94191D892BCA
:1004D00061F482E00E94DC0B62E08AE00E948311FA
:1004E0008AE692E00E94D0102FC1CE01CD9661E73E
:1004F00072E00E94191D892B61F483E00E94DC0BDD
:1005000062E08AE00E94831183E792E00E94D010AB
:100510001BC1CE01CD966AE772E00E94191D892B9E
:1005200061F484E00E94DC0B62E08AE00E948311A7
:100530008CE792E00E94D01007C1CE01CD9663E80F
:1005400072E00E94191D892B61F485E00E94DC0B8A
:1005500062E08AE00E94831185E892E00E94D01058
:10056000F3C0CE01CD966CE872E00E94191D892B74
:1005700069F461E080E00E949F1162E080E00E94E7
:10058000831181E992E00E94D010DEC0CE01CD96A9
:1005900064E972E00E94191D892B69F461E081E031
:1005A0000E949F1162E082E00E94831189E992E03B
:1005B0000E94D010C9C0CE01CD966CE972E00E94B5
:1005C000191D892B69F461E082E00E949F1162E0AD
:1005D00084E00E94831181EA92E00E94D010B4C0AE
:1005E000CE01CD9664EA72E00E94191D892B69F450
:1005F00061E083E00E949F1162E086E00E94831127
:1006000089EA92E00E94D0109FC0CE01CD966CEA9C
:1006100072E00E94191D892B69F461E084E00E9458
:100620009F1162E088E00E94831181EB92E00E94BA
:10063000D0108AC0CE01CD9664EB72E00E94191DE5
:10064000892B69F460E080E00E949F1162E080E005
:100650000E9483118AEB92E00E94D01075C0CE01F7
:10066000CD966DEB72E00E94191D892B69F460E054
:1006700081E00E949F1162E082E00E9483118AEB78
:1006800092E00E94D01060C0CE01CD9663EC72E083
:100690000E94191D892B69F460E082E00E949F117D
:1006A00062E084E00E9483118AEB92E00E94D01005
:1006B0004BC0CE01CD9669EC72E00E94191D892BCA
:1006C00069F460E083E00E949F1162E086E00E948E
:1006D00083118AEB92E00E94D01036C0CE01CD96F5
:1006E0006FEC72E00E94191D892B69F460E084E0D0
:1006F0000E949F1162E088E00E9483118AEB92E0E1
:100700000E94D01021C0CE01CD9665ED72E00E940E
:10071000191D892B21F480E00E949F0B15C0CE018A
:10072000CD966AED72E00E94191D892B21F481E0BB
:100730000E949F0B09C0CE01CD9664E471E00E9437
:10074000191D892B09F419868985813009F489CE10
:100750000EC0CE01CD9660EE72E00E94191D892B6D
:1007600011F4188604C082EE92E00E946D1A88850A
:10077000882309F008CEF6CD80EF92E00E946D1A32
:100780008F818F5F8F83EECD61E082E00E949F11A9
:1007900080E090E0AAEFB4E48E879F87A88BB98BA6
:1007A00020E030E04AE755E46E857F8588899989A5
:1007B0000E94841CDC01CB018AA79BA7ACA7BDA724
:1007C00020E030E040E85FE36AA57BA58CA59DA50D
:1007D0000E94271B88232CF481E090E09FA78EA71E
:1007E0003FC020E03FEF4FE757E46AA57BA58CA50B
:1007F0009DA50E947F1C18164CF520E030E040E2D9
:1008000051E46E857F85888999890E94841CDC016A
:10081000CB01BC01CD010E949E1BDC01CB019FA737
:100820008EA70FC080E991E099AB88AB88A999A900
:100830000197F1F799AB88AB8EA59FA501979FA76C
:100840008EA78EA59FA5892B69F714C06AA57BA5E5
:100850008CA59DA50E949E1BDC01CB019FA78EA7A6
:100860008EA59FA59BAB8AAB8AA99BA90197F1F79F
:100870009BAB8AAB60E082E00E949F111F8272CD29
:100880001F93CF93DF93CDB7DEB729970FB6F894B8
:10089000DEBF0FBECDBF81E193E00E946D1ACE0195
:1008A00001960E94A70489E193E00E946D1ACE018F
:1008B00006960E94A704198180E090E00E94900CA7
:1008C0001817D1F51A8181E090E00E94900C18175A
:1008D00099F51B8182E090E00E94900C181761F559
:1008E0001C8183E090E00E94900C181729F51D816F
:1008F00084E090E00E94900C1817F1F41E8185E0CE
:1009000090E00E94900C1817B9F41F8186E090E0E7
:100910000E94900C181781F4188587E090E00E94DF
:10092000900C181749F4198588E090E00E94900C0B
:10093000181711F481E001C080E029960FB6F894F1
:10094000DEBF0FBECDBFDF91CF911F910895CF9332
:10095000DF9300D000D0CDB7DEB79C838B831982A4
:100960001A8210920E0418C00E94971A89838981F6
:100970008D3391F08A81882F90E02B813C81820F0A
:10098000931F2981FC01208380910E048F5F809347
:100990000E048A818F5F8A8389818D3329F7809144
:1009A0000E04882F90E02B813C81820F931FFC0165
:1009B00010828DE00E944F1A8AE00E944F1A0000B8
:1009C0000F900F900F900F90DF91CF910895CF93DC
:1009D000DF93CDB7DEB7EB970FB6F894DEBF0FBE4F
:1009E000CDBF19821A821B8286E293E00E946D1AA3
:1009F000CE0188960E94A70485E68983ADC08981CF
:100A0000882F90E00E94900C8F3F09F0A2C089814E
:100A10008A831D821C828981882F90E09F838E8328
:100A20008AC04E815F819E01285D3F4F8C819D81F0
:100A3000820F931FFC018081BA010E94080C80E0A4
:100A400090E0A0EAB1E4888B998BAA8BBB8B20E065
:100A500030E04AE755E4688979898A899B890E9450
:100A6000841CDC01CB018C8B9D8BAE8BBF8B20E07B
:100A700030E040E85FE36C897D898E899F890E9420
:100A8000271B88232CF481E090E0998F888F3FC04A
:100A900020E03FEF4FE757E46C897D898E899F897D
:100AA0000E947F1C18164CF520E030E040E251E433
:100AB000688979898A899B890E94841CDC01CB0121
:100AC000BC01CD010E949E1BDC01CB01998F888F58
:100AD0000FC080E991E09B8F8A8F8A8D9B8D019753
:100AE000F1F79B8F8A8F888D998D0197998F888FC9
:100AF000888D998D892B69F714C06C897D898E89C1
:100B00009F890E949E1BDC01CB01998F888F888D65
:100B1000998D9D8F8C8F8C8D9D8D0197F1F79D8F79
:100B20008C8F8E819F8101969F838E838C819D8186
:100B300001969D838C8380910E04282F30E08C8158
:100B40009D81821793070CF46CCF8B818F5F8B8311
:100B500007C089818C5E89838981883C08F44FCFE6
:100B600084E393E00E946D1ACE01C2960E94A7040E
:100B70008A81865F8A83198618868A81882F90E009
:100B80009B878A878AC04A855B859E012E5C3F4F82
:100B900088859985820F931FFC018081BA010E948C
:100BA000080C80E090E0A0EAB1E48C879D87AE87D6
:100BB000BF8720E030E04AE755E46C857D858E856F
:100BC0009F850E94841CDC01CB018E8F9F8FA8A380
:100BD000B9A320E030E040E85FE36E8D7F8D88A10F
:100BE00099A10E94271B88232CF481E090E09BA30D
:100BF0008AA33FC020E03FEF4FE757E46E8D7F8D23
:100C000088A199A10E947F1C18164CF520E030E0C5
:100C100040E251E46C857D858E859F850E94841C11
:100C2000DC01CB01BC01CD010E949E1BDC01CB018C
:100C30009BA38AA30FC080E991E09DA38CA38CA104
:100C40009DA10197F1F79DA38CA38AA19BA1019778
:100C50009BA38AA38AA19BA1892B69F714C06E8DDF
:100C60007F8D88A199A10E949E1BDC01CB019BA3D3
:100C70008AA38AA19BA19FA38EA38EA19FA1019766
:100C8000F1F79FA38EA38A859B8501969B878A8710
:100C90008885998501969987888780910E04282FE9
:100CA00030E088859985821793070CF46CCF8B818F
:100CB000EB960FB6F894DEBF0FBECDBFDF91CF919C
:100CC0000895CF93DF93CDB7DEB7EB970FB6F894C7
:100CD000DEBF0FBECDBF19821A821B8287E493E06C
:100CE0000E946D1ACE0188960E94A7048BE089832A
:100CF000ADC08981882F90E00E94900C8F3F09F051
:100D0000A2C089818A831D821C828981882F90E0FC
:100D10009F838E838AC04E815F819E01285D3F4FF5
:100D20008C819D81820F931FFC018081BA010E94FA
:100D3000080C80E090E0A0EAB1E4888B998BAA8B44
:100D4000BB8B20E030E04AE755E4688979898A89DD
:100D50009B890E94841CDC01CB018C8B9D8BAE8B0C
:100D6000BF8B20E030E040E85FE36C897D898E89AD
:100D70009F890E94271B88232CF481E090E0998FA3
:100D8000888F3FC020E03FEF4FE757E46C897D89B3
:100D90008E899F890E947F1C18164CF520E030E058
:100DA00040E251E4688979898A899B890E94841C80
:100DB000DC01CB01BC01CD010E949E1BDC01CB01FB
:100DC000998F888F0FC080E991E09B8F8A8F8A8DE1
:100DD0009B8D0197F1F79B8F8A8F888D998D019755
:100DE000998F888F888D998D892B69F714C06C89AC
:100DF0007D898E899F890E949E1BDC01CB01998F82
:100E0000888F888D998D9D8F8C8F8C8D9D8D01976E
:100E1000F1F79D8F8C8F8E819F8101969F838E83AA
:100E20008C819D8101969D838C8380910E04282F57
:100E300030E08C819D81821793070CF46CCF8B81FD
:100E40008F5F8B8307C089818C5E8983898184361B
:100E500008F44FCF86E593E00E946D1ACE01C2964A
:100E60000E94A7048A81865F8A83198618868A81F0
:100E7000882F90E09B878A878AC04A855B859E0180
:100E80002E5C3F4F88859985820F931FFC018081DE
:100E9000BA010E94080C80E090E0A0EAB1E48C87DF
:100EA0009D87AE87BF8720E030E04AE755E46C8538
:100EB0007D858E859F850E94841CDC01CB018E8FF1
:100EC0009F8FA8A3B9A320E030E040E85FE36E8DD8
:100ED0007F8D88A199A10E94271B88232CF481E093
:100EE00090E09BA38AA33FC020E03FEF4FE757E489
:100EF0006E8D7F8D88A199A10E947F1C18164CF5DC
:100F000020E030E040E251E46C857D858E859F8550
:100F10000E94841CDC01CB01BC01CD010E949E1B00
:100F2000DC01CB019BA38AA30FC080E991E09DA3C4
:100F30008CA38CA19DA10197F1F79DA38CA38AA1FD
:100F40009BA101979BA38AA38AA19BA1892B69F7E7
:100F500014C06E8D7F8D88A199A10E949E1BDC011B
:100F6000CB019BA38AA38AA19BA19FA38EA38EA141
:100F70009FA10197F1F79FA38EA38A859B85019678
:100F80009B878A878885998501969987888780912C
:100F90000E04282F30E088859985821793070CF47A
:100FA0006CCF8B81EB960FB6F894DEBF0FBECDBF32
:100FB000DF91CF9108951F93CF93DF93CDB7DEB725
:100FC000EC970FB6F894DEBF0FBECDBF19821A8220
:100FD0001B828AE693E00E946D1ACE01C3960E949E
:100FE000A70485E68C83B1C08C81882F90E00E9495
:100FF000900C8F3F09F4A3C01D828C818E8399C011
:101000008D81882F90E09E012D5C3F4F820F931FB2
:10101000FC0110818E81882F90E00E94900C18179F
:1010200009F080C08A818F5F8A8380910E049A8143
:10103000981709F078C08C81898380E090E0A6E958
:10104000B3E4898B9A8BAB8BBC8B20E030E04AE712
:1010500055E469897A898B899C890E94841CDC010A
:10106000CB018D8B9E8BAF8BB88F20E030E040E8BA
:101070005FE36D897E898F89988D0E94271B882365
:101080002CF481E090E09A8F898F3FC020E03FEF01
:101090004FE757E46D897E898F89988D0E947F1C68
:1010A00018164CF520E030E040E251E469897A8975
:1010B0008B899C890E94841CDC01CB01BC01CD0181
:1010C0000E949E1BDC01CB019A8F898F0FC080E9A3
:1010D00091E09C8F8B8F8B8D9C8D0197F1F79C8F6E
:1010E0008B8F898D9A8D01979A8F898F898D9A8D93
:1010F000892B69F714C06D897E898F89988D0E942C
:101100009E1BDC01CB019A8F898F898D9A8D9E8FD2
:101110008D8F8D8D9E8D0197F1F79E8F8D8F81E044
:101120008B830DC01A828E818F5F8E838D818F5F3E
:101130008D8380910E049D81981708F461CF8B8177
:10114000813041F08C818C5E8C838C81883C08F4EA
:101150004BCF01C000008981882309F403C11F829D
:1011600089818887F9C08885882F90E0BC018FEF3E
:101170000E94080C80E090E0A0EAB1E48D879E8791
:10118000AF87B88B20E030E04AE755E46D857E8577
:101190008F8598890E94841CDC01CB0189A79AA7BE
:1011A000ABA7BCA720E030E040E85FE369A57AA5E3
:1011B0008BA59CA50E94271B88232CF481E090E03E
:1011C0009EA78DA73FC020E03FEF4FE757E469A5FA
:1011D0007AA58BA59CA50E947F1C18164CF520E0D3
:1011E00030E040E251E46D857E858F8598890E94CC
:1011F000841CDC01CB01BC01CD010E949E1BDC01E3
:10120000CB019EA78DA70FC080E991E098AB8FA777
:101210008FA598A90197F1F798AB8FA78DA59EA5EB
:1012200001979EA78DA78DA59EA5892B69F714C050
:1012300069A57AA58BA59CA50E949E1BDC01CB010C
:101240009EA78DA78DA59EA59AAB89AB89A99AA9C2
:101250000197F1F79AAB89AB8885882F90E00A96C1
:10126000BC018FEF0E94080C80E090E0A0EAB1E49E
:1012700089879A87AB87BC8720E030E04AE755E44E
:1012800069857A858B859C850E94841CDC01CB0155
:101290008F8F98A3A9A3BAA320E030E040E85FE3D2
:1012A0006F8D78A189A19AA10E94271B88232CF415
:1012B00081E090E09CA38BA33FC020E03FEF4FE78D
:1012C00057E46F8D78A189A19AA10E947F1C1816FE
:1012D0004CF520E030E040E251E469857A858B8569
:1012E0009C850E94841CDC01CB01BC01CD010E94C5
:1012F0009E1BDC01CB019CA38BA30FC080E991E076
:101300009EA38DA38DA19EA10197F1F79EA38DA30E
:101310008BA19CA101979CA38BA38BA19CA1892B42
:1013200069F714C06F8D78A189A19AA10E949E1BB4
:10133000DC01CB019CA38BA38BA19CA198A78FA3BD
:101340008FA198A50197F1F798A78FA388858F5F44
:1013500088878F818F5F8F838F818A3008F403CFD6
:1013600081E001C080E0EC960FB6F894DEBF0FBEBE
:10137000CDBFDF91CF911F9108951F93CF93DF933E
:10138000CDB7DEB7EC970FB6F894DEBF0FBECDBF7A
:1013900019821A821B828AE693E00E946D1ACE019E
:1013A000C3960E94A7048BE08C83B1C08C81882FE8
:1013B00090E00E94900C8F3F09F4A3C01D828C81A5
:1013C0008E8399C08D81882F90E09E012D5C3F4FC8
:1013D000820F931FFC0110818E81882F90E00E9464
:1013E000900C181709F080C08A818F5F8A838091E2
:1013F0000E049A81981709F078C08C81898380E067
:1014000090E0A6E9B3E4898B9A8BAB8BBC8B20E090
:1014100030E04AE755E469897A898B899C890E9482
:10142000841CDC01CB018D8B9E8BAF8BB88F20E0B1
:1014300030E040E85FE36D897E898F89988D0E9456
:10144000271B88232CF481E090E09A8F898F3FC07E
:1014500020E03FEF4FE757E46D897E898F89988DB3
:101460000E947F1C18164CF520E030E040E251E469
:1014700069897A898B899C890E94841CDC01CB0153
:10148000BC01CD010E949E1BDC01CB019A8F898F8C
:101490000FC080E991E09C8F8B8F8B8D9C8D019785
:1014A000F1F79C8F8B8F898D9A8D01979A8F898FF9
:1014B000898D9A8D892B69F714C06D897E898F89F2
:1014C000988D0E949E1BDC01CB019A8F898F898D9C
:1014D0009A8D9E8F8D8F8D8D9E8D0197F1F79E8FAA
:1014E0008D8F81E08B830DC01A828E818F5F8E83FA
:1014F0008D818F5F8D8380910E049D81981708F4F4
:1015000061CF8B81813041F08C818C5E8C838C81AA
:10151000843608F44BCF01C000008981882309F488
:1015200003C11F8289818887F9C08885882F90E050
:10153000BC018FEF0E94080C80E090E0A0EAB1E4CB
:101540008D879E87AF87B88B20E030E04AE755E46F
:101550006D857E858F8598890E94841CDC01CB0176
:1015600089A79AA7ABA7BCA720E030E040E85FE3DB
:1015700069A57AA58BA59CA50E94271B88232CF41E
:1015800081E090E09EA78DA73FC020E03FEF4FE7AE
:1015900057E469A57AA58BA59CA50E947F1C181607
:1015A0004CF520E030E040E251E46D857E858F858A
:1015B00098890E94841CDC01CB01BC01CD010E94F2
:1015C0009E1BDC01CB019EA78DA70FC080E991E097
:1015D00098AB8FA78FA598A90197F1F798AB8FA724
:1015E0008DA59EA501979EA78DA78DA59EA5892B4C
:1015F00069F714C069A57AA58BA59CA50E949E1BBE
:10160000DC01CB019EA78DA78DA59EA59AAB89ABCA
:1016100089A99AA90197F1F79AAB89AB8885882F98
:1016200090E00A96BC018FEF0E94080C80E090E0E9
:10163000A0EAB1E489879A87AB87BC8720E030E0D5
:101640004AE755E469857A858B859C850E94841CD0
:10165000DC01CB018F8F98A3A9A3BAA320E030E0CF
:1016600040E85FE36F8D78A189A19AA10E94271BB2
:1016700088232CF481E090E09CA38BA33FC020E062
:101680003FEF4FE757E46F8D78A189A19AA10E949F
:101690007F1C18164CF520E030E040E251E46985EB
:1016A0007A858B859C850E94841CDC01CB01BC0162
:1016B000CD010E949E1BDC01CB019CA38BA30FC01C
:1016C00080E991E09EA38DA38DA19EA10197F1F7E2
:1016D0009EA38DA38BA19CA101979CA38BA38BA1FF
:1016E0009CA1892B69F714C06F8D78A189A19AA15B
:1016F0000E949E1BDC01CB019CA38BA38BA19CA110
:1017000098A78FA38FA198A50197F1F798A78FA30A
:1017100088858F5F88878F818F5F8F838F818A30E5
:1017200008F403CF81E001C080E0EC960FB6F89496
:10173000DEBF0FBECDBFDF91CF911F910895CF9334
:10174000DF931F92CDB7DEB789830E941B190E94D9
:10175000B11561E08DE10E94941282E390E00E9455
:10176000AF1984E893E00E946D1A8981813071F489
:101770000E94FA1086E893E00E94D01060E070E0CA
:1017800080E291E40E94621981E012C0898188237D
:1017900071F40E94FA1082E993E00E94D01060E098
:1017A00070E080EA90E40E94621981E001C080E06C
:1017B0000F90DF91CF910895CF93DF9300D0CDB7F5
:1017C000DEB78A8361E08BE00E9494128A818823CD
:1017D00019F40E94631816C08A81882399F08A81BF
:1017E000863080F40E94891781E00E9403198A8163
:1017F000880F880F982F990F990F890F89838981F6
:101800000E94E81800000F900F90DF91CF9108958B
:10181000CF93DF93CDB7DEB727970FB6F894DEBF2F
:101820000FBECDBF8D837F836E8386E590E024EA73
:10183000FC012083000086E590E0FC018081881F88
:101840008827881F882F90E081709927892B99F32A
:101850008E819F81882797709A83898389819A8155
:10186000880F892F881F990B91958B838B81806AB4
:101870008C8383E290E02C81FC01208386E590E05C
:1018800024E8FC012083000086E590E0FC018081D3
:10189000881F8827881F882F90E081709927892BBF
:1018A00099F383E290E02E81FC01208386E590E0AD
:1018B00024E8FC012083000086E590E0FC018081A3
:1018C000881F8827881F882F90E081709927892B8F
:1018D00099F383E290E02D81FC01208386E590E07E
:1018E00024E8FC012083000086E590E0FC01808173
:1018F000881F8827881F882F90E081709927892B5F
:1019000099F386E590E024E9FC0120830000279606
:101910000FB6F894DEBF0FBECDBFDF91CF91089513
:10192000CF93DF93CDB7DEB727970FB6F894DEBF1E
:101930000FBECDBF9F838E8386E590E024EAFC0135
:101940002083000086E590E0FC018081881F8827C5
:10195000881F882F90E081709927892B99F38E81B9
:101960009F81882797709A83898389819A81880FBC
:10197000892F881F990B91958B838B81806A8C832B
:1019800083E290E02C81FC01208386E590E024E84E
:10199000FC012083000086E590E0FC018081881F27
:1019A0008827881F882F90E081709927892B99F3C9
:1019B00083E290E02E81FC01208386E590E024E81C
:1019C000FC012083000086E590E0FC018081881FF7
:1019D0008827881F882F90E081709927892B99F399
:1019E00086E590E024EAFC012083000086E590E093
:1019F000FC018081881F8827881F882F90E08170D4
:101A00009927892B99F38E819F81882797709A83D4
:101A1000898389819A81880F892F881F990B9195D5
:101A20008B838B81816A8C8383E290E02C81FC0123
:101A3000208386E590E024E8FC012083000086E511
:101A400090E0FC018081881F8827881F882F90E004
:101A500081709927892B99F386E590E024E8FC01B1
:101A60002083000086E590E0FC018081881F8827A4
:101A7000881F882F90E081709927892B99F383E242
:101A800090E0FC0180818D8386E590E024E9FC01F3
:101A900020838D8127960FB6F894DEBF0FBECDBF91
:101AA000DF91CF910895CF93DF93CDB7DEB7E8975D
:101AB0000FB6F894DEBF0FBECDBF61E082E10E9499
:101AC000941261E083E10E94941261E084E10E943B
:101AD000941261E085E10E94941261E086E10E9427
:101AE000941261E087E10E94941261E08EE10E940D
:101AF000941282E00E94BA1080E090E0A8E4B2E480
:101B000089839A83AB83BC8320E030E04AE755E4C5
:101B100069817A818B819C810E94841CDC01CB01CC
:101B20008FA798ABA9ABBAAB20E030E040E85FE309
:101B30006FA578A989A99AA90E94271B88232CF44C
:101B400081E090E09CAB8BAB3FC020E03FEF4FE7E4
:101B500057E46FA578A989A99AA90E947F1C181635
:101B60004CF520E030E040E251E469817A818B81DC
:101B70009C810E94841CDC01CB01BC01CD010E9430
:101B80009E1BDC01CB019CAB8BAB0FC080E991E0CD
:101B90009EAB8DAB8DA99EA90197F1F79EAB8DAB46
:101BA0008BA99CA901979CAB8BAB8BA99CA9892B7A
:101BB00069F714C06FA578A989A99AA90E949E1BEC
:101BC000DC01CB019CAB8BAB8BA99CA998AF8FABF5
:101BD0008FA998AD0197F1F798AF8FAB88E20E947B
:101BE000BA1080E090E0A0E8BFE38D839E83AF83CE
:101BF000B88720E030E04AE755E46D817E818F812F
:101C000098850E94841CDC01CB018DA39EA3AFA309
:101C1000B8A720E030E040E85FE36DA17EA18FA18E
:101C200098A50E94271B88232CF481E090E09AA7B6
:101C300089A73FC020E03FEF4FE757E46DA17EA1A9
:101C40008FA198A50E947F1C18164CF520E030E06B
:101C500040E251E46D817E818F8198850E94841CD1
:101C6000DC01CB01BC01CD010E949E1BDC01CB013C
:101C70009AA789A70FC080E991E09CA78BA78BA5A5
:101C80009CA50197F1F79CA78BA789A59AA5019719
:101C90009AA789A789A59AA5892B69F714C06DA170
:101CA0007EA18FA198A50E949E1BDC01CB019AA763
:101CB00089A789A59AA59EA78DA78DA59EA5019701
:101CC000F1F79EA78DA78EE00E94BA1080E090E009
:101CD000A0E8BFE389879A87AB87BC8720E030E024
:101CE0004AE755E469857A858B859C850E94841C2A
:101CF000DC01CB018B8F9C8FAD8FBE8F20E030E05D
:101D000040E85FE36B8D7C8D8D8D9E8D0E94271B3F
:101D100088232CF481E090E098A38F8F3FC020E0CF
:101D20003FEF4FE757E46B8D7C8D8D8D9E8D0E942C
:101D30007F1C18164CF520E030E040E251E4698544
:101D40007A858B859C850E94841CDC01CB01BC01BB
:101D5000CD010E949E1BDC01CB0198A38F8F0FC089
:101D600080E991E09AA389A389A19AA10197F1F74B
:101D70009AA389A38F8D98A1019798A38F8F8F8D98
:101D800098A1892B69F714C06B8D7C8D8D8D9E8DEC
:101D90000E949E1BDC01CB0198A38F8F8F8D98A191
:101DA0009CA38BA38BA19CA10197F1F79CA38BA370
:101DB00081E00E94BA1080E090E0A0EAB0E48D8754
:101DC0009E87AF87B88B20E030E04AE755E46D8509
:101DD0007E858F8598890E94841CDC01CB01898BCC
:101DE0009A8BAB8BBC8B20E030E040E85FE36989E5
:101DF0007A898B899C890E94271B88232CF481E097
:101E000090E09E8B8D8B3FC020E03FEF4FE757E483
:101E100069897A898B899C890E947F1C18164CF5E8
:101E200020E030E040E251E46D857E858F85988921
:101E30000E94841CDC01CB01BC01CD010E949E1BD1
:101E4000DC01CB019E8B8D8B0FC080E991E0988FD8
:101E50008F8B8F89988D0197F1F7988F8F8B8D8954
:101E60009E8901979E8B8D8B8D899E89892B69F721
:101E700014C069897A898B899C890E949E1BDC0128
:101E8000CB019E8B8D8B8D899E899A8F898F898DB1
:101E90009A8D0197F1F79A8F898F86E00E94BA1088
:101EA0000000E8960FB6F894DEBF0FBECDBFDF91FD
:101EB000CF910895CF93DF93CDB7DEB76D970FB66F
:101EC000F894DEBF0FBECDBF8D8F8D8D82958F7044
:101ED0008170682F82E10E949F118D8D8295869579
:101EE00087708170682F83E10E949F118D8D82958C
:101EF0008695869583708170682F84E10E949F117A
:101F00008D8D881F8827881F682F85E10E949F116B
:101F100061E08EE10E949F1180E090E0A0E8BFE3C5
:101F200089839A83AB83BC8320E030E04AE755E4A1
:101F300069817A818B819C810E94841CDC01CB01A8
:101F40008B8B9C8BAD8BBE8B20E030E040E85FE359
:101F50006B897C898D899E890E94271B88232CF49C
:101F600081E090E0988F8F8B3FC020E03FEF4FE7FC
:101F700057E46B897C898D899E890E947F1C181685
:101F80004CF520E030E040E251E469817A818B81B8
:101F90009C810E94841CDC01CB01BC01CD010E940C
:101FA0009E1BDC01CB01988F8F8B0FC080E991E0E5
:101FB0009A8F898F898D9A8D0197F1F79A8F898FE2
:101FC0008F89988D0197988F8F8B8F89988D892B0A
:101FD00069F714C06B897C898D899E890E949E1B3C
:101FE000DC01CB01988F8F8B8F89988D9C8F8B8F85
:101FF0008B8D9C8D0197F1F79C8F8B8F60E08EE12C
:102000000E949F118D8D8170682F82E10E949F1127
:102010008D8D86958170682F83E10E949F118D8D33
:10202000869586958170682F84E10E949F118D8D21
:102030008695869586958170682F85E10E949F110F
:1020400061E08EE10E949F1180E090E0A0E8BFE394
:102050008D839E83AF83B88720E030E04AE755E464
:102060006D817E818F8198850E94841CDC01CB016B
:1020700089879A87AB87BC8720E030E040E85FE340
:1020800069857A858B859C850E94271B88232CF483
:1020900081E090E09E878D873FC020E03FEF4FE7D3
:1020A00057E469857A858B859C850E947F1C18166C
:1020B0004CF520E030E040E251E46D817E818F817B
:1020C00098850E94841CDC01CB01BC01CD010E94DB
:1020D0009E1BDC01CB019E878D870FC080E991E0BC
:1020E000988B8F878F8598890197F1F7988B8F87C9
:1020F0008D859E8501979E878D878D859E85892BF1
:1021000069F714C069857A858B859C850E949E1B22
:10211000DC01CB019E878D878D859E859A8B898B6F
:1021200089899A890197F1F79A8B898B60E08EE112
:102130000E949F1100006D960FB6F894DEBF0FBE8F
:10214000CDBFDF91CF910895CF93DF931F92CDB78D
:10215000DEB7898360E087E10E949F1161E086E13C
:102160000E949F1189810E945A0F00000F90DF91F9
:10217000CF910895CF93DF931F92CDB7DEB78983B8
:1021800060E087E10E949F1160E086E10E949F115C
:1021900089810E945A0F00000F90DF91CF9108951E
:1021A000CF93DF9300D01F92CDB7DEB79B838A8396
:1021B00019820EC08981882F90E02A813B81820F8D
:1021C000931FFC0180810E94A41089818F5F898305
:1021D0008981882F90E02A813B81820F931FFC0127
:1021E0008081882339F700000F900F900F90DF91C6
:1021F000CF910895CF93DF93CDB7DEB72E970FB66B
:10220000F894DEBF0FBECDBF81E00E94BA1080E01F
:1022100090E0A0E8BFE389839A83AB83BC8320E08E
:1022200030E04AE755E469817A818B819C810E9484
:10223000841CDC01CB018D839E83AF83B88720E0B3
:1022400030E040E85FE36D817E818F8198850E9458
:10225000271B88232CF481E090E09A8789873FC070
:1022600020E03FEF4FE757E46D817E818F819885B5
:102270000E947F1C18164CF520E030E040E251E44B
:1022800069817A818B819C810E94841CDC01CB0155
:10229000BC01CD010E949E1BDC01CB019A8789877E
:1022A0000FC080E991E09C878B878B859C85019787
:1022B000F1F79C878B8789859A8501979A8789870B
:1022C00089859A85892B69F714C06D817E818F81FC
:1022D00098850E949E1BDC01CB019A87898789859E
:1022E0009A859E878D878D859E850197F1F79E87BC
:1022F0008D8700002E960FB6F894DEBF0FBECDBFBF
:10230000DF91CF910895CF93DF9300D0CDB7DEB7A3
:1023100089836A838A81813029F4898180580E9467
:10232000BA1007C08A81823021F4898180540E94CA
:10233000BA1000000F900F90DF91CF910895CF93C6
:10234000DF9300D0CDB7DEB789836A838981883077
:1023500090F58A818130A9F48BE390E02BE330E0A3
:10236000F9012081622F2981422F50E021E030E0E5
:1023700002C0220F331F4A95E2F7262BFC0120836F
:10238000CDC08A81882309F0C9C08BE390E02BE39C
:1023900030E0F9012081622F2981422F50E021E0B5
:1023A00030E002C0220F331F4A95E2F72095262322
:1023B000FC012083B3C089818830C0F189818031DC
:1023C000A8F58981885089838A818130A9F488E3BE
:1023D00090E028E330E0F9012081622F2981422F2B
:1023E00050E021E030E002C0220F331F4A95E2F7AF
:1023F000262BFC0120838FC08A81882309F08BC0A3
:1024000088E390E028E330E0F9012081622F298100
:10241000422F50E021E030E002C0220F331F4A95E6
:10242000E2F720952623FC01208375C08981803145
:10243000C0F189818931A8F58981805189838A8198
:102440008130A9F485E390E025E330E0F9012081B3
:10245000622F2981422F50E021E030E002C0220F9C
:10246000331F4A95E2F7262BFC01208356C08A8150
:10247000882309F052C085E390E025E330E0F901BC
:102480002081622F2981422F50E021E030E002C0FC
:10249000220F331F4A95E2F720952623FC01208363
:1024A0003CC089818831D0F189818032B8F5898139
:1024B000885189838A818130A9F482E390E022E304
:1024C00030E0F9012081622F2981422F50E021E084
:1024D00030E002C0220F331F4A95E2F7262BFC01A1
:1024E00020831CC08A818823C9F482E390E022E320
:1024F00030E0F9012081622F2981422F50E021E054
:1025000030E002C0220F331F4A95E2F720952623C0
:10251000FC01208303C0000001C0000000000F90F8
:102520000F90DF91CF910895CF93DF9300D0CDB777
:10253000DEB789836A838981883090F58A8181300A
:10254000A9F48AE390E02AE330E0F9012081622FC8
:102550002981422F50E021E030E002C0220F331FDA
:102560004A95E2F7262BFC012083CDC08A8188237F
:1025700009F0C9C08AE390E02AE330E0F901208144
:10258000622F2981422F50E021E030E002C0220F6B
:10259000331F4A95E2F720952623FC012083B3C020
:1025A00089818830C0F189818031A8F5898188507E
:1025B00089838A818130A9F487E390E027E330E0C2
:1025C000F9012081622F2981422F50E021E030E083
:1025D00002C0220F331F4A95E2F7262BFC0120830D
:1025E0008FC08A81882309F08BC087E390E027E3BE
:1025F00030E0F9012081622F2981422F50E021E053
:1026000030E002C0220F331F4A95E2F720952623BF
:10261000FC01208375C089818031C0F189818831B6
:10262000A8F58981805189838A818130A9F484E366
:1026300090E024E330E0F9012081622F2981422FCC
:1026400050E021E030E002C0220F331F4A95E2F74C
:10265000262BFC01208356C08A81882309F052C0B2
:1026600084E390E024E330E0F9012081622F2981A6
:10267000422F50E021E030E002C0220F331F4A9584
:10268000E2F720952623FC0120833CC08981883114
:10269000D0F189818032B8F58981885189838A8116
:1026A0008130A9F481E390E021E330E0F901208159
:1026B000622F2981422F50E021E030E002C0220F3A
:1026C000331F4A95E2F7262BFC0120831CC08A8128
:1026D0008823C9F481E390E021E330E0F90120810F
:1026E000622F2981422F50E021E030E002C0220F0A
:1026F000331F4A95E2F720952623FC01208303C06F
:10270000000001C0000000000F900F90DF91CF91FA
:102710000895CF93DF931F92CDB7DEB78983898168
:10272000882399F485E590E025E530E0F9012081E2
:102730002E7FFC01208385E590E025E530E0F9015E
:1027400020812D7FFC01208341C08981813099F453
:1027500085E590E025E530E0F90120812160FC016C
:10276000208385E590E025E530E0F90120812D7F8B
:10277000FC0120832BC08981823099F485E590E0AB
:1027800025E530E0F90120812E7FFC01208385E5DD
:1027900090E025E530E0F90120812260FC012083F2
:1027A00015C08981833091F485E590E025E530E01E
:1027B000F90120812160FC01208385E590E025E579
:1027C00030E0F90120812260FC0120838BE590E05C
:1027D0002BE530E0F90120812064FC01208300001A
:1027E0000F90DF91CF9108951F920F9200905F009C
:1027F0000F9211242F933F934F935F936F937F9387
:102800008F939F93AF93BF93EF93FF93CF93DF93F8
:10281000CDB7DEB7C055D109DEBFCDBF61E087E0DF
:102820000E94941261E086E00E94941261E085E0CB
:102830000E94941283E3EFE9F3E0DE015E960190DB
:102840000D928A95E1F7CE014E960E946D1A0E9474
:10285000971A898389818B3609F083C061E086E00D
:102860000E949F1161E085E00E949F1180E090E04E
:10287000A8ECB2E48E839F83A887B98720E030E07C
:102880004AE755E46E817F81888599850E94841C82
:10289000DC01CB018A879B87AC87BD8720E030E0D5
:1028A00040E85FE36A857B858C859D850E94271BB8
:1028B00088232CF481E090E09F878E873FC020E042
:1028C0003FEF4FE757E46A857B858C859D850E94A5
:1028D0007F1C18164CF520E030E040E251E46E8198
:1028E0007F81888599850E94841CDC01CB01BC0115
:1028F000CD010E949E1BDC01CB019F878E870FC0FC
:1029000080E991E0998B888B888999890197F1F703
:10291000998B888B8E859F8501979F878E878E8563
:102920009F85892B69F714C06A857B858C859D8579
:102930000E949E1BDC01CB019F878E878E859F8521
:102940009B8B8A8B8A899B890197F1F79B8B8A8B5A
:1029500060E086E00E949F1160E085E00E949F1188
:1029600082C061E087E00E949F1161E085E00E94E3
:102970009F1180E090E0A8ECB2E48A839B83AC8353
:10298000BD8320E030E04AE755E46A817B818C8199
:102990009D810E94841CDC01CB018C8B9D8BAE8BB6
:1029A000BF8B20E030E040E85FE36C897D898E8951
:1029B0009F890E94271B88232CF481E090E0998F47
:1029C000888F3FC020E03FEF4FE757E46C897D8957
:1029D0008E899F890E947F1C18164CF520E030E0FC
:1029E00040E251E46A817B818C819D810E94841C3C
:1029F000DC01CB01BC01CD010E949E1BDC01CB019F
:102A0000998F888F0FC080E991E09B8F8A8F8A8D84
:102A10009B8D0197F1F79B8F8A8F888D998D0197F8
:102A2000998F888F888D998D892B69F714C06C894F
:102A30007D898E899F890E949E1BDC01CB01998F25
:102A4000888F888D998D9D8F8C8F8C8D9D8D019712
:102A5000F1F79D8F8C8F60E087E00E949F1160E00E
:102A600085E00E949F110000C05BDF4F0FB6F89415
:102A7000DEBF0FBECDBFDF91CF91FF91EF91BF9130
:102A8000AF919F918F917F916F915F914F913F9106
:102A90002F910F9000925F000F901F9018951F923A
:102AA0000F9200905F000F9211242F933F934F934A
:102AB0005F936F937F938F939F93AF93BF93EF93A6
:102AC000FF93CF93DF93CDB7DEB78091130490913E
:102AD0001404FC0109950000DF91CF91FF91EF9163
:102AE000BF91AF919F918F917F916F915F914F9126
:102AF0003F912F910F9000925F000F901F901895BB
:102B00001F920F9200905F000F9211242F933F931A
:102B10004F935F936F937F938F939F93AF93BF93E5
:102B2000EF93FF93CF93DF93CDB7DEB7809111047E
:102B300090911204FC0109950000DF91CF91FF9163
:102B4000EF91BF91AF919F918F917F916F915F9125
:102B50004F913F912F910F9000925F000F901F9027
:102B60001895CF93DF93CDB7DEB78FE590E02FE5D3
:102B700030E0F90120812068FC0120830000DF9112
:102B8000CF910895CF93DF931F92CDB7DEB789839E
:102B90008981813041F08981882329F482E290E0A3
:102BA00020EAFC01208386E590E026E530E0F9018B
:102BB00020812460FC01208380E290E028E4FC0175
:102BC000208300000F90DF91CF910895CF93DF9382
:102BD000CDB7DEB78DE290E02DE230E0F901208143
:102BE0002F7EFC01208361E08DE00E94941261E061
:102BF0008FE00E94941260E08EE00E94941261E0E7
:102C00008CE00E9494128DE290E02DE230E0F90118
:102C100020812068FC0120838DE290E02DE230E0ED
:102C2000F90120812064FC0120830000DF91CF9115
:102C30000895CF93DF93CDB7DEB700008EE290E02A
:102C4000FC018081881F8827881F882F90E0817071
:102C50009927892B99F38FE290E0FC018081DF9125
:102C6000CF910895CF93DF931F92CDB7DEB78983BD
:102C70008981873679F461E080E00E949F1162E0EB
:102C800070E080E090E00E94831182ED93E00E946A
:102C9000D01007C18981883679F461E081E00E9413
:102CA0009F1162E070E082E090E00E94831185ED68
:102CB00093E00E94D010F5C08981893679F461E0F3
:102CC00082E00E949F1162E070E084E090E00E9448
:102CD000831188ED93E00E94D010E3C089818A3689
:102CE00079F461E083E00E949F1162E070E086E089
:102CF00090E00E9483118BED93E00E94D010D1C030
:102D000089818B3679F461E084E00E949F1162E052
:102D100070E088E090E00E9483118EED93E00E94C5
:102D2000D010BFC089818C3679F460E080E00E94C9
:102D30009F1162E070E080E090E00E94831181EEDC
:102D400093E00E94D010ADC089818D3679F460E0A7
:102D500081E00E949F1162E070E082E090E00E94BA
:102D6000831181EE93E00E94D0109BC089818E3642
:102D700079F460E082E00E949F1162E070E084E0FC
:102D800090E00E94831181EE93E00E94D01089C0F0
:102D900089818F3679F460E083E00E949F1162E0C0
:102DA00070E086E090E00E94831181EE93E00E9443
:102DB000D01077C08981803779F460E084E00E9488
:102DC0009F1162E070E088E090E00E94831181EE44
:102DD00093E00E94D01065C08981813671F480E053
:102DE0000E94DC0B62E070E08AE090E00E948311B8
:102DF00084EE93E00E94D01054C08981823671F431
:102E000081E00E94DC0B62E070E08AE090E00E94CA
:102E100083118BEE93E00E94D01043C089818336EA
:102E200071F482E00E94DC0B62E070E08AE090E0E6
:102E30000E94831182EF93E00E94D01032C08981FA
:102E4000843671F483E00E94DC0B62E070E08AE07B
:102E500090E00E94831189EF93E00E94D01021C07E
:102E60008981853671F484E00E94DC0B62E070E0B9
:102E70008AE090E00E94831180E094E00E94D010EC
:102E800010C08981863669F480E00E94DC0B62E024
:102E900070E08AE090E00E94831187E094E00E9455
:102EA000D01000000F90DF91CF9108951F920F92E4
:102EB00000905F000F9211242F933F934F935F93E5
:102EC0006F937F938F939F93AF93BF93EF93FF93F2
:102ED000CF93DF931F92CDB7DEB70E941916898377
:102EE00089810E94321600000F90DF91CF91FF91EF
:102EF000EF91BF91AF919F918F917F916F915F9172
:102F00004F913F912F910F9000925F000F901F9073
:102F10001895CF93DF93CDB7DEB783E590E023E537
:102F200030E0F90120812F77FC01208383E590E0D8
:102F300023E530E0F90120812064FC01208383E552
:102F400090E023E530E0F90120812860FC01208336
:102F500083E590E023E530E0F90120812F7EFC013C
:102F6000208383E590E023E530E0F90120812062B1
:102F7000FC0120830000DF91CF910895CF93DF9370
:102F80001F92CDB7DEB7898389818823E1F483E579
:102F900090E023E530E0F90120812160FC012083ED
:102FA00083E590E023E530E0F90120812D7FFC01ED
:102FB000208383E590E023E530E0F90120812B7F39
:102FC000FC0120837BC089818130E1F483E590E0BE
:102FD00023E530E0F90120812E7FFC01208383E589
:102FE00090E023E530E0F90120812260FC0120839C
:102FF00083E590E023E530E0F90120812B7FFC019F
:1030000020835CC089818230E1F483E590E023E590
:1030100030E0F90120812160FC01208383E590E00C
:1030200023E530E0F90120812260FC01208383E563
:1030300090E023E530E0F90120812B7FFC01208323
:103040003DC089818330E1F483E590E023E530E001
:10305000F90120812E7FFC01208383E590E023E5A8
:1030600030E0F90120812D7FFC01208383E590E091
:1030700023E530E0F90120812460FC0120831EC09B
:1030800089818430D9F483E590E023E530E0F901CB
:1030900020812160FC01208383E590E023E530E07E
:1030A000F90120812D7FFC01208383E590E023E559
:1030B00030E0F90120812460FC01208300000F90A2
:1030C000DF91CF910895CF93DF93CDB7DEB783E53E
:1030D00090E023E530E0F90120812E7FFC01208380
:1030E00083E590E023E530E0F90120812D7FFC01AC
:1030F000208383E590E023E530E0F90120812B7FF8
:10310000FC0120830000DF91CF9108951F920F9260
:1031100000905F000F9211242F933F934F935F9382
:103120006F937F938F939F93AF93BF93EF93FF938F
:10313000CF93DF93CDB7DEB7809117049091180439
:10314000FC0109950000DF91CF91FF91EF91BF91B4
:10315000AF919F918F917F916F915F914F913F912F
:103160002F910F9000925F000F901F9018951F9263
:103170000F9200905F000F9211242F933F934F9373
:103180005F936F937F938F939F93AF93BF93EF93CF
:10319000FF93CF93DF93CDB7DEB780911504909165
:1031A0001604FC0109950000DF91CF91FF91EF918A
:1031B000BF91AF919F918F917F916F915F914F914F
:1031C0003F912F910F9000925F000F901F901895E4
:1031D000CF93DF931F92CDB7DEB789832CE530E024
:1031E0008981882F90E0982F882744E650E0BA0123
:1031F0000E94F11CCB018150F901808300000F90E7
:10320000DF91CF910895CF93DF931F92CDB7DEB7B3
:1032100089838981882321F480E00E94BE1706C03B
:103220008981813019F481E00E94BE1700000F905F
:10323000DF91CF910895CF93DF93CDB7DEB78FE4C1
:1032400090E02FE430E0F90120812460FC0120832C
:103250008FE490E02FE430E0F90120812E7FFC0123
:1032600020838FE490E02FE430E0F9012081226098
:10327000FC0120838EE490E02EE430E0F90120810F
:103280002860FC0120838EE490E02EE430E0F90118
:1032900020812061FC0120838FE490E02FE430E066
:1032A000F90120812F7BFC0120838FE490E02FE443
:1032B00030E0F90120812068FC0120830000DF91CB
:1032C000CF9108950F931F93CF93DF9300D000D039
:1032D000CDB7DEB769837A838B839C830AE410E0E1
:1032E00086E490E0FC0180819181CC01A0E0B0E017
:1032F000BC01CD010E94CD1BDC01CB0129813A81AB
:103300004B815C81BC01CD010E94841CDC01CB019E
:1033100020E030E048EC52E4BC01CD010E942C1BBF
:10332000DC01CB0120E030E040E85FE3BC01CD01EF
:103330000E94BA1ADC01CB01BC01CD010E949E1B88
:10334000DC01CB01F8019183808300000F900F9086
:103350000F900F90DF91CF911F910F9108950F93D0
:103360001F93CF93DF9300D0CDB7DEB79A838983C5
:1033700006E410E089819A81CC01A0E0B0E0BC01B4
:10338000CD010E94CD1BDC01CB0120E030E040E804
:1033900052E4BC01CD010E94841CDC01CB019C01E4
:1033A000AD0160E074E284E79BE40E942C1BDC0129
:1033B000CB0120E030E040E85FE3BC01CD010E949A
:1033C000BA1ADC01CB01BC01CD010E949E1BDC01BD
:1033D000CB01F801918380838EE490E02EE430E00D
:1033E000F90120812160FC0120838EE490E02EE42D
:1033F00030E0F90120812260FC0120838EE490E01E
:103400002EE430E0F90120812B7FFC0120830000B5
:103410000F900F90DF91CF911F910F910895CF934F
:10342000DF931F92CDB7DEB78AE290E02AE230E068
:10343000F90120812061FC0120838AE290E02AE2E8
:1034400030E0F90120812860FC01208380E8898335
:103450008AE290E02AE230E0F90120812460FC0158
:1034600020838981846089838981846089838981BB
:10347000877F898389818F7E898389818F7D8983F5
:1034800080E490E02981FC01208389E290E027E636
:10349000FC01208300000F90DF91CF910895CF931E
:1034A000DF931F92CDB7DEB7898300008BE290E0F7
:1034B000FC018081829586958770882F90E08170CD
:1034C0009927892B99F38CE290E02981FC012083D4
:1034D00000000F90DF91CF910895CF93DF9300D03C
:1034E0001F92CDB7DEB79B838A8319820EC0898174
:1034F000882F90E02A813B81820F931FFC018081FD
:103500000E944F1A89818F5F89838981882F90E07B
:103510002A813B81820F931FFC018081882339F728
:1035200000000F900F900F90DF91CF910895CF93EF
:10353000DF9300D0CDB7DEB71A82198205C089812A
:103540009A8101969A8389838BE290E0FC018081C5
:10355000881F8827881F882F90E081709927892BE2
:1035600071F38CE290E0FC0180810F900F90DF916D
:10357000CF9108955058BB27AA270E94D21A0C94C5
:10358000451C0E94371C38F00E943E1C20F039F484
:103590009F3F19F426F40C94341C0EF4E095E7FBDD
:1035A0000C942E1CE92F0E94561C58F3BA17620780
:1035B00073078407950720F079F4A6F50C94781C1E
:1035C0000EF4E0950B2EBA2FA02D0B01B90190013E
:1035D0000C01CA01A0011124FF27591B99F0593F82
:1035E00050F4503E68F11A16F040A22F232F342FCA
:1035F0004427585FF3CF469537952795A795F04018
:103600005395C9F77EF41F16BA0B620B730B840B2C
:10361000BAF09150A1F0FF0FBB1F661F771F881FE4
:10362000C2F70EC0BA0F621F731F841F48F487953C
:1036300077956795B795F7959E3F08F0B0CF93952E
:10364000880F08F09927EE0F9795879508950E94A7
:103650000A1C08F481E008950E94401B0C94451C4C
:103660000E943E1C58F00E94371C40F029F45F3F36
:1036700029F00C942E1C51110C94791C0C94341CC0
:103680000E94561C68F39923B1F3552391F3951BBF
:10369000550BBB27AA2762177307840738F09F5F73
:1036A0005F4F220F331F441FAA1FA9F335D00E2EE0
:1036B0003AF0E0E832D091505040E695001CCAF74D
:1036C0002BD0FE2F29D0660F771F881FBB1F261710
:1036D00037074807AB07B0E809F0BB0B802DBF01E7
:1036E000FF2793585F4F3AF09E3F510578F00C94B6
:1036F0002E1C0C94791C5F3FE4F3983ED4F386951E
:1037000077956795B795F7959F5FC9F7880F911DD6
:103710009695879597F90895E1E0660F771F881FC2
:10372000BB1F621773078407BA0720F0621B730B75
:10373000840BBA0BEE1F88F7E09508950E945E1C7B
:1037400088F09F5798F0B92F9927B751B0F0E1F062
:10375000660F771F881F991F1AF0BA95C9F714C012
:10376000B13091F00E94781CB1E008950C94781C5F
:10377000672F782F8827B85F39F0B93FCCF386954B
:1037800077956795B395D9F73EF4909580957095A8
:1037900061957F4F8F4F9F4F0895E89409C097FB25
:1037A0003EF490958095709561957F4F8F4F9F4F18
:1037B0009923A9F0F92F96E9BB279395F69587955C
:1037C00077956795B795F111F8CFFAF4BB0F11F41F
:1037D00060FF1BC06F5F7F4F8F4F9F4F16C08823C6
:1037E00011F096E911C0772321F09EE8872F762FFC
:1037F00005C0662371F096E8862F70E060E02AF03D
:103800009A95660F771F881FDAF7880F9695879528
:1038100097F90895990F0008550FAA0BE0E8FEEFFD
:1038200016161706E807F907C0F012161306E40784
:10383000F50798F0621B730B840B950B39F40A267D
:1038400061F0232B242B252B21F408950A2609F45B
:10385000A140A6958FEF811D811D089597F99F675F
:1038600080E870E060E008959FEF80EC0895002408
:103870000A941616170618060906089500240A94D5
:1038800012161306140605060895092E0394000C5B
:1038900011F4882352F0BB0F40F4BF2B11F460FFEA
:1038A00004C06F5F7F4F8F4F9F4F089557FD905813
:1038B000440F551F59F05F3F71F04795880F97FBF4
:1038C000991F61F09F3F79F08795089512161306AE
:1038D0001406551FF2CF4695F1DF08C016161706DD
:1038E0001806991FF1CF8695710561050894089512
:1038F000E894BB2766277727CB0197F908950E94A4
:103900000A1C08F48FEF08950E94971C0C94451C24
:103910000E94371C38F00E943E1C20F0952311F0C5
:103920000C942E1C0C94341C11240C94791C0E94B1
:10393000561C70F3959FC1F3950F50E0551F629F81
:10394000F001729FBB27F00DB11D639FAA27F00DF8
:10395000B11DAA1F649F6627B00DA11D661F829F1F
:103960002227B00DA11D621F739FB00DA11D621F04
:10397000839FA00D611D221F749F3327A00D611D21
:10398000231F849F600D211D822F762F6A2F112403
:103990009F5750409AF0F1F088234AF0EE0FFF1F36
:1039A000BB1F661F771F881F91505040A9F79E3F8D
:1039B000510580F00C942E1C0C94791C5F3FE4F3AD
:1039C000983ED4F3869577956795B795F795E795E3
:1039D0009F5FC1F7FE2B880F911D9695879597F9EC
:1039E000089597FB072E16F4009407D077FD09D0B1
:1039F0000E94051D07FC05D03EF4909581959F4FD0
:103A00000895709561957F4F0895AA1BBB1B51E1E6
:103A100007C0AA1FBB1FA617B70710F0A61BB70B3E
:103A2000881F991F5A95A9F780959095BC01CD01E3
:103A30000895FB01DC018D91019080190110D9F3EB
:083A4000990B0895F894FFCFE3
:103A480057656C636F6D6520486F6D652E0D20009E
:103A5800207072657373206120746F206164642024
:103A6800616E206F6E6C696E6520757365720D20CE
:103A78007072657373206220746F206164642061C2
:103A88006E206F66666C696E6520757365720D20B1
:103A98007072657373206320746F2064656C65743D
:103AA80065206F6E6C696E6520757365720D207088
:103AB80072657373206420746F2064656C65746527
:103AC800206F66666C696E6520757365720D20706F
:103AD80072657373206520746F20436F6E74726F04
:103AE8006C20646576696365730D20707265737305
:103AF800207320746F207369676E206F75740D00D2
:103B08006100557365722061646465642073756330
:103B18006365737366756C6C79200D004572726FFE
:103B2800720D2000620055736572206164646564DB
:103B3800207375636365737366756C6C790D20000B
:103B48006300557365722064656C657465642073E1
:103B580075636365737366756C6C79200D004572C7
:103B6800726F72200D0064006500577269746520D9
:103B7800746865206E756D626572206F6620746862
:103B880065206C6564207468656E206F6E206F72A6
:103B9800206F666620746F20636F6E74726F6C207E
:103BA80069740D50726573732061206E756D62655E
:103BB80072206265747765656E203120616E6420BD
:103BC8003520746F20636F6E74726F6C2074686533
:103BD8002064696D6D696E670D5772697465206F31
:103BE800666620746F207475726E2064696D6D65E9
:103BF80072206F66660D205772697465206F706554
:103C08006E206F7220636C6F736520746F20636F12
:103C18006E74726F6C2074686520646F6F720D200B
:103C28005072657373206220746F20676F20626121
:103C3800636B0D006F666600202020202020003175
:103C48000044696D204C3100320044696D204C32CB
:103C580000330044696D204C3300340044696D2002
:103C68004C3400350044696D204C350031206F6EAE
:103C7800004C310032206F6E004C320033206F6EE2
:103C8800004C330034206F6E004C340035206F6ECA
:103C9800004C350031206F66660020200032206F0E
:103CA80066660033206F66660034206F66660035EE
:103CB800206F6666006F70656E00636C6F736500D9
:103CC800730077726F6E6720696E7075740D2000CF
:103CD80057726F6E6720557365726E616D65206FE0
:103CE800722050617373776F72640061646D696EDE
:103CF8000041646D696E3D200041646D696E20501D
:103D08006173733D20006F6E6C696E652075736515
:103D1800723D20006F6E6C696E6520757365722048
:103D2800706173733D20006F66666C696E652075FF
:103D38007365723D20006F66666C696E65207573E9
:103D4800657220706173733D200075736572205928
:103D58006F75207769736820746F2064656C65746B
:103D6800653D20000D004F50454E2020444F4F52D6
:103D78000D00436C6F73652020444F4F520D004176
:103D88002075736572206E65656420746F206163A9
:103D9800636573732E207072657373206B20746F64
:103DA80020616C6C6F772074686520757365723A52
:103DB80020004C31004C32004C33004C34004C3560
:103DC800002020002020202020200044696D204C65
:103DD800310044696D204C320044696D204C330039
:0E3DE80044696D204C340044696D204C350058
:00000001FF
