:100000000C942A000C949C110C94CD110C94FE11AC
:100010000C9447000C9447000C9447000C94470044
:100020000C9447000C9447000C94C0130C948F134D
:100030000C9447000C9447000C9447000C94470024
:100040000C9447000C9447000C9447000C94470014
:100050000C94470011241FBECFE5D8E0DEBFCDBF12
:1000600011E0A0E6B0E0EEEFFBE202C005900D92D9
:10007000A43FB107D9F722E0A4EFB1E001C01D927F
:10008000A130B207E1F70E94AE000C94FD150C946C
:100090000000CF93DF9300D000D000D0CDB7DEB703
:1000A0008091F4019091F50101969093F501809370
:1000B000F4018091F4019091F501843C944009F0A1
:1000C00043C080E00E94040E9A83898389819A81CB
:1000D000CC01A0E0B0E0BC01CD010E94D014DC0155
:1000E000CB0120E93EE34AEF5EE3BC01CD010E9473
:1000F0008715DC01CB018B839C83AD83BE8320E01D
:1001000030E040EF51E46B817C818D819E810E94C3
:10011000821588232CF061E081E00E94BD0E10C0A2
:1001200020E030E040EB51E46B817C818D819E8149
:100130000E949C14882324F460E081E00E94BD0E9C
:100140001092F5011092F401000026960FB6F89473
:10015000DEBF0FBECDBFDF91CF910895CF93DF9368
:10016000CDB7DEB7A8970FB6F894DEBF0FBECDBFF0
:1001700060E08BE10E94B20F60E08FE10E94B20F5D
:1001800060E08EE10E94B20F61E082E00E94B20F57
:1001900061E081E00E94B20F60E080E00E94B20F57
:1001A00061E081E00E94B20F0E94C60D0E946412BD
:1001B0000E94F11381E00E9440120E942F1283E0FE
:1001C0000E941E110E94B41289E490E00E947C13E8
:1001D00083E00E94D7120E948E080E947A0985EA65
:1001E00095E00E948911198281E08A838981833098
:1001F00009F48AC10E941405813009F07DC1198279
:1002000080E690E00E944F1461E088E00E94B20F07
:1002100061E088E00E94BD0E80E090E0A8E4B2E4D6
:100220008F839887A987BA8720E030E04AE755E4B2
:100230006F81788589859A850E948715DC01CB01BD
:100240008B879C87AD87BE8720E030E040E85FE386
:100250006B857C858D859E850E949C1488232CF45B
:1002600081E090E0988B8F873FC020E03FEF4FE721
:1002700057E46B857C858D859E850E9482151816B6
:100280004CF520E030E040E251E46F8178858985CB
:100290009A850E948715DC01CB01BC01CD010E942B
:1002A000A114DC01CB01988B8F870FC080E991E00E
:1002B0009A8B898B89899A890197F1F79A8B898B17
:1002C0008F8598890197988B8F878F859889892B3F
:1002D00069F714C06B857C858D859E850E94A1146D
:1002E000DC01CB01988B8F878F8598899C8B8B8BBA
:1002F0008B899C890197F1F79C8B8B8B60E088E060
:100300000E94BD0E00008BE10E94A7108823D9F344
:100310008EE10E94A710882309F4DDC08BE790E0EE
:100320000E944F14D3C084E890E00E944F14CE0185
:100330004F960E9445030E944900CE014F9664E209
:1003400071E00E94F415892B21F481E60E948E123F
:10035000BDC0CE014F9668E271E00E94F415892B72
:1003600021F482E60E948E12B1C0CE014F966AE25D
:1003700071E00E94F415892B21F483E60E948E120D
:10038000A5C0CE014F966CE271E00E94F415892B56
:1003900021F484E60E948E1299C0CE014F966EE23F
:1003A00071E00E94F415892B21F485E60E948E12DB
:1003B0008DC0CE014F9660E371E00E94F415892B49
:1003C00021F486E60E948E1281C0CE014F9662E330
:1003D00071E00E94F415892B21F487E60E948E12A9
:1003E00075C0CE014F9667E371E00E94F415892B2A
:1003F00021F488E60E948E1269C0CE014F966CE30C
:1004000071E00E94F415892B21F489E60E948E1276
:100410005DC0CE014F9661E471E00E94F415892B16
:1004200021F48AE60E948E1251C0CE014F9666E4F6
:1004300071E00E94F415892B21F48BE60E948E1244
:1004400045C0CE014F966BE471E00E94F415892BF4
:1004500021F48CE60E948E1239C0CE014F9661E5E0
:1004600071E00E94F415892B21F48DE60E948E1212
:100470002DC0CE014F9667E571E00E94F415892BDF
:1004800021F48EE60E948E1221C0CE014F966DE5BA
:1004900071E00E94F415892B21F48FE60E948E12E0
:1004A00015C0CE014F9663E671E00E94F415892BCA
:1004B00021F480E70E948E1209C0CE014F9669E6B2
:1004C00071E00E94F415892B09F41A828A81813027
:1004D00009F429CF8BCE8FE10E94A710882309F45D
:1004E00085CE8BE691E00E944F148DE00E9431147E
:1004F0008AE00E9431147ACE89E791E00E944F147D
:1005000089818F5F898372CE61E082E00E94BD0E97
:1005100080E090E0AAEFB4E48B839C83AD83BE833C
:1005200020E030E04AE755E46B817C818D819E813B
:100530000E948715DC01CB018D8B9E8BAF8BB88F12
:1005400020E030E040E85FE36D897E898F89988DF7
:100550000E949C1488232CF481E090E09A8F898F6C
:100560003FC020E03FEF4FE757E46D897E898F89D8
:10057000988D0E94821518164CF520E030E040E27C
:1005800051E46B817C818D819E810E948715DC0105
:10059000CB01BC01CD010E94A114DC01CB019A8FDB
:1005A000898F0FC080E991E09C8F8B8F8B8D9C8D04
:1005B0000197F1F79C8F8B8F898D9A8D01979A8F78
:1005C000898F898D9A8D892B69F714C06D897E89F1
:1005D0008F89988D0E94A114DC01CB019A8F898F9D
:1005E000898D9A8D9E8F8D8F8D8D9E8D0197F1F7C0
:1005F0009E8F8D8F60E082E00E94BD0E1982F6CD45
:10060000CF93DF9300D000D0CDB7DEB79C838B8330
:1006100019821A821092F60123C00E94C2088983AF
:1006200089818837E9F089818D33D1F000000E94FB
:10063000C2088837E1F789810E94CB0C8A81882F14
:1006400090E02B813C81820F931F2981FC01208344
:100650008091F6018F5F8093F6018A818F5F8A8394
:1006600089818D33D1F68091F601882F90E02B811E
:100670003C81820F931FFC01108200000F900F90AD
:100680000F900F90DF91CF910895CF93DF9300D01B
:1006900000D0CDB7DEB79C838B8319821A8210926B
:1006A000F60118C00E947914898389818D3391F0F5
:1006B0008A81882F90E02B813C81820F931F2981B2
:1006C000FC0120838091F6018F5F8093F6018A817F
:1006D0008F5F8A8389818D3329F78091F601882F76
:1006E00090E02B813C81820F931FFC0110828DE0F2
:1006F0000E9431148AE00E94311400000F900F9084
:100700000F900F90DF91CF9108951F93CF93DF93B8
:10071000CDB7DEB7E8970FB6F894DEBF0FBECDBFFA
:10072000198284E991E00E94F70CCE0185960E941F
:1007300000031A821B828BE08C83B1C08C81882FCE
:1007400090E00E94CB078F3F09F4A3C01D828C81EB
:100750008E8399C08D81882F90E09E012B5D3F4F45
:10076000820F931FFC0110818E81882F90E00E94E0
:10077000CB07181709F080C08A818F5F8A83809128
:10078000F6019A81981709F078C08C818B8380E0FC
:1007900090E0A6E9B3E48D879E87AF87B88B20E011
:1007A00030E04AE755E46D857E858F8598890E9403
:1007B0008715DC01CB01898B9A8BAB8BBC8B20E03E
:1007C00030E040E85FE369897A898B899C890E94DF
:1007D0009C1488232CF481E090E09E8B8D8B3FC08D
:1007E00020E03FEF4FE757E469897A898B899C893C
:1007F0000E94821518164CF520E030E040E251E4EA
:100800006D857E858F8598890E948715DC01CB01D7
:10081000BC01CD010E94A114DC01CB019E8B8D8B0C
:100820000FC080E991E0988F8F8B8F89988D019709
:10083000F1F7988F8F8B8D899E8901979E8B8D8B79
:100840008D899E89892B69F714C069897A898B897A
:100850009C890E94A114DC01CB019E8B8D8B8D891C
:100860009E899A8F898F898D9A8D0197F1F79A8F3A
:10087000898F81E089830DC01A828E818F5F8E837C
:100880008D818F5F8D838091F6019D81981708F48B
:1008900061CF8981813041F08C818C5E8C838C8129
:1008A000843608F44BCF01C000008B81882309F403
:1008B000B0C062E080E00E94AA0D8AE991E00E9447
:1008C000F70CCE018F960E9400038B81865F8B838D
:1008D0001A821F828B81888796C08F81882F90E033
:1008E0009E01215D3F4F820F931FFC01108188857F
:1008F000882F90E00E94CB07181709F07DC08A81ED
:100900008F5F8A838091F6019A81981709F075C0EC
:1009100080E090E0A6E9B3E489879A87AB87BC873B
:1009200020E030E04AE755E469857A858B859C852F
:100930000E948715DC01CB018B8F9C8FAD8FBE8F02
:1009400020E030E040E85FE36B8D7C8D8D8D9E8DE7
:100950000E949C1488232CF481E090E098A38F8F50
:100960003FC020E03FEF4FE757E46B8D7C8D8D8DCE
:100970009E8D0E94821518164CF520E030E040E272
:1009800051E469857A858B859C850E948715DC01F9
:10099000CB01BC01CD010E94A114DC01CB0198A3C5
:1009A0008F8F0FC080E991E09AA389A389A19AA1B2
:1009B0000197F1F79AA389A38F8D98A1019798A326
:1009C0008F8F8F8D98A1892B69F714C06B8D7C8DCB
:1009D0008D8D9E8D0E94A114DC01CB0198A38F8F79
:1009E0008F8D98A19CA38BA38BA19CA10197F1F75C
:1009F0009CA38BA381E00EC01A8288858F5F8887B5
:100A00008F818F5F8F838091F6019F81981708F403
:100A100064CF80E0E8960FB6F894DEBF0FBECDBF7E
:100A2000DF91CF911F9108951F93CF93DF93CDB79F
:100A3000DEB76B970FB6F894DEBF0FBECDBF84E96B
:100A400091E00E944F14CE0108960E94450319823E
:100A50001A8285E68B8334C08B81882F90E00E94B8
:100A6000CB078F3F51F11C828B818D8323C08C81FA
:100A7000882F90E09E01285F3F4F820F931FFC015B
:100A800010818D81882F90E00E94CB07181759F4B0
:100A900089818F5F89838091F6019981981721F46C
:100AA0008B818A830AC019828D818F5F8D838C81AF
:100AB0008F5F8C838C818A30D0F28B818C5E8B83AC
:100AC0008B81883C48F28A818823A1F18AE991E0F0
:100AD0000E944F14CE0142960E9445038A81865F90
:100AE0008A8319821E828A818F8321C08E81882FFA
:100AF00090E09E012E5E3F4F820F931FFC011081FC
:100B00008F81882F90E00E94CB07181751F48981BC
:100B10008F5F89838091F6019981981711F481E0A4
:100B20000AC08F818F5F8F838E818F5F8E838E81CE
:100B30008A30E0F280E06B960FB6F894DEBF0FBE0D
:100B4000CDBFDF91CF911F910895CF93DF93CDB7A4
:100B5000DEB7A9970FB6F894DEBF0FBECDBF61E038
:100B600082E00E94B20F81E0898381E08A8305C21E
:100B70001B828B81833009F485C10E948503882301
:100B800009F471C11B820E94210D84EA91E00E9448
:100B9000F70C80E090E0AAEFB3E488879987AA87F2
:100BA000BB8720E030E04AE755E4688579858A858F
:100BB0009B850E948715DC01CB018C879D87AE87C2
:100BC000BF8720E030E040E85FE36C857D858E855F
:100BD0009F850E949C1488232CF481E090E0998BDF
:100BE000888B3FC020E03FEF4FE757E46C857D8561
:100BF0008E859F850E94821518164CF520E030E006
:100C000040E251E4688579858A859B850E94871535
:100C1000DC01CB01BC01CD010E94A114DC01CB01A0
:100C2000998B888B0FC080E991E09B8B8A8B8A8996
:100C30009B890197F1F79B8B8A8B8889998901970A
:100C4000998B888B88899989892B69F714C06C8561
:100C50007D858E859F850E94A114DC01CB01998B37
:100C6000888B888999899D8B8C8B8C899D8901972C
:100C7000F1F79D8B8C8B0E94210DF0C0CE018096E8
:100C80000E940003CE0180966CEA71E00E94F41588
:100C9000892B31F487E60E948E120E94210DDEC05E
:100CA000CE01809660EB71E00E94F415892B31F43F
:100CB00088E60E948E120E94210DD0C0CE0180963F
:100CC00064EB71E00E94F415892B31F489E60E94EF
:100CD0008E120E94210DC2C0CE01809668EB71E099
:100CE0000E94F415892B31F48AE60E948E120E942C
:100CF000210DB4C0CE0180966CEB71E00E94F4151A
:100D0000892B31F48BE60E948E120E94210DA6C021
:100D1000CE01809660EC71E00E94F415892B31F4CD
:100D20008CE60E948E120E94210D98C0CE01809602
:100D300064EC71E00E94F415892B31F48DE60E9479
:100D40008E120E94210D8AC0CE01809668EC71E05F
:100D50000E94F415892B31F48EE60E948E120E94B7
:100D6000210D7CC0CE0180966CEC71E00E94F415E0
:100D7000892B31F48FE60E948E120E94210D6EC0E5
:100D8000CE01809660ED71E00E94F415892B31F45C
:100D900080E70E948E120E94210D60C0CE018096D5
:100DA00064ED71E00E94F415892B31F481E60E9414
:100DB0008E120E94210D52C0CE01809668ED71E026
:100DC0000E94F415892B31F482E60E948E120E9453
:100DD000210D44C0CE0180966CED71E00E94F415A7
:100DE000892B31F484E60E948E120E94210D36C0B8
:100DF000CE01809660EE71E00E94F415892B31F4EB
:100E000085E60E948E120E94210D28C0CE01809698
:100E100064EE71E00E94F415892B31F486E60E949D
:100E20008E120E94210D1AC0CE01809668EE71E0EC
:100E30000E94F415892B31F483E60E948E120E94E1
:100E4000210D0CC0CE0180966CEE71E00E94F4156D
:100E5000892B21F419821A820E94210D8A81813006
:100E600009F40CCF8AC00E948503882309F085C04D
:100E70000E94210D8EEE91E00E94F70C8B818F5F16
:100E80008B837BC061E082E00E94BD0E80E090E039
:100E9000AAEFB4E48C839D83AE83BF8320E030E06F
:100EA0004AE755E46C817D818E819F810E94871580
:100EB000DC01CB018E8B9F8BA88FB98F20E030E0B7
:100EC00040E85FE36E897F89888D998D0E949C142C
:100ED00088232CF481E090E09B8F8A8F3FC020E034
:100EE0003FEF4FE757E46E897F89888D998D0E9487
:100EF000821518164CF520E030E040E251E46C8198
:100F00007D818E819F810E948715DC01CB01BC0110
:100F1000CD010E94A114DC01CB019B8F8A8F0FC0F1
:100F200080E991E09D8F8C8F8C8D9D8D0197F1F7DD
:100F30009D8F8C8F8A8D9B8D01979B8F8A8F8A8D39
:100F40009B8D892B69F714C06E897F89888D998D57
:100F50000E94A114DC01CB019B8F8A8F8A8D9B8D0F
:100F60009F8F8E8F8E8D9F8D0197F1F79F8F8E8F24
:100F700060E082E00E94BD0E1B828981813009F40D
:100F8000F7CD0000A9960FB6F894DEBF0FBECDBF17
:100F9000DF91CF910895CF93DF93CDB7DEB7279739
:100FA0000FB6F894DEBF0FBECDBF9F838E8386E55C
:100FB00090E024EAFC012083000086E590E0FC013B
:100FC0008081881F8827881F882F90E0817099274B
:100FD000892B99F38E819F81882797709A838983C3
:100FE00089819A81880F892F881F990B91958B830E
:100FF0008B81806A8C8383E290E02C81FC012083CA
:1010000086E590E024E8FC012083000086E590E07E
:10101000FC018081881F8827881F882F90E08170BD
:101020009927892B99F383E290E02E81FC0120839C
:1010300086E590E024E8FC012083000086E590E04E
:10104000FC018081881F8827881F882F90E081708D
:101050009927892B99F386E590E024EAFC01208307
:10106000000086E590E0FC018081881F8827881FAA
:10107000882F90E081709927892B99F38E819F8129
:10108000882797709A83898389819A81880F892F0D
:10109000881F990B91958B838B81816A8C8383E266
:1010A00090E02C81FC01208386E590E024E8FC019F
:1010B0002083000086E590E0FC018081881F88275E
:1010C000881F882F90E081709927892B99F386E5F6
:1010D00090E024E8FC012083000086E590E0FC011C
:1010E0008081881F8827881F882F90E0817099272A
:1010F000892B99F383E290E0FC0180818D8386E562
:1011000090E024E9FC0120838D8127960FB6F894A6
:10111000DEBF0FBECDBFDF91CF910895CF93DF9398
:10112000CDB7DEB760E082E10E94B20F60E083E1FC
:101130000E94B20F60E084E10E94B20F60E085E19E
:101140000E94B20F82E10E940F1183E10E940F11F1
:1011500084E10E940F1185E10E940F1161E086E198
:101160000E94B20F61E087E10E94B20F61E08DE161
:101170000E94B20F61E083E00E94B20F0000DF9195
:10118000CF910895CF93DF93CDB7DEB760E086E1CE
:101190000E94BD0E61E087E10E94BD0E61E08DE11D
:1011A0000E94BD0E61E083E00E94BD0E82E10E94BC
:1011B000A710882311F487E39AC083E10E94A71047
:1011C000882311F484E393C084E10E94A71088234C
:1011D00011F481E38CC085E10E94A710882311F4EB
:1011E00083E685C061E086E10E94BD0E60E087E194
:1011F0000E94BD0E61E08DE10E94BD0E61E083E0C2
:101200000E94BD0E82E10E94A710882311F488E39A
:101210006EC083E10E94A710882311F485E367C0A4
:1012200084E10E94A710882311F482E360C085E165
:101230000E94A710882311F480E359C061E086E181
:101240000E94BD0E61E087E10E94BD0E60E08DE16D
:101250000E94BD0E61E083E00E94BD0E82E10E940B
:10126000A710882311F489E342C083E10E94A710EC
:10127000882311F486E33BC084E10E94A7108823F1
:1012800011F483E334C085E10E94A710882311F490
:101290008DE32DC061E086E10E94BD0E61E087E133
:1012A0000E94BD0E61E08DE10E94BD0E60E083E012
:1012B0000E94BD0E82E10E94A710882311F48FE2E4
:1012C00016C083E10E94A710882311F48AE20FC0A0
:1012D00084E10E94A710882311F48DE208C085E103
:1012E0000E94A710882311F48BE201C088E7DF91E8
:1012F000CF910895CF93DF93CDB7DEB7E8970FB6C0
:10130000F894DEBF0FBECDBF61E084E00E94B20F53
:1013100061E085E00E94B20F61E086E00E94B20FBA
:1013200061E087E00E94B20F61E089E00E94B20FA5
:1013300061E08AE00E94B20F61E08BE00E94B20F90
:1013400082E00E94E10C80E090E0A8E4B2E48983AE
:101350009A83AB83BC8320E030E04AE755E469819F
:101360007A818B819C810E948715DC01CB018FA73C
:1013700098ABA9ABBAAB20E030E040E85FE36FA5E3
:1013800078A989A99AA90E949C1488232CF481E049
:1013900090E09CAB8BAB3FC020E03FEF4FE757E4C2
:1013A0006FA578A989A99AA90E94821518164CF5EB
:1013B00020E030E040E251E469817A818B819C81B8
:1013C0000E948715DC01CB01BC01CD010E94A11454
:1013D000DC01CB019CAB8BAB0FC080E991E09EABF5
:1013E0008DAB8DA99EA90197F1F79EAB8DAB8BA913
:1013F0009CA901979CAB8BAB8BA99CA9892B69F706
:1014000014C06FA578A989A99AA90E94A114DC012A
:10141000CB019CAB8BAB8BA99CA998AF8FAB8FA951
:1014200098AD0197F1F798AF8FAB88E20E94E10C7D
:1014300080E090E0A0E8BFE38D839E83AF83B88710
:1014400020E030E04AE755E46D817E818F81988508
:101450000E948715DC01CB018DA39EA3AFA3B8A783
:1014600020E030E040E85FE36DA17EA18FA198A568
:101470000E949C1488232CF481E090E09AA789A70D
:101480003FC020E03FEF4FE757E46DA17EA18FA161
:1014900098A50E94821518164CF520E030E040E235
:1014A00051E46D817E818F8198850E948715DC01D2
:1014B000CB01BC01CD010E94A114DC01CB019AA794
:1014C00089A70FC080E991E09CA78BA78BA59CA55D
:1014D0000197F1F79CA78BA789A59AA501979AA7D1
:1014E00089A789A59AA5892B69F714C06DA17EA14A
:1014F0008FA198A50E94A114DC01CB019AA789A70E
:1015000089A59AA59EA78DA78DA59EA50197F1F700
:101510009EA78DA78EE00E94E10C80E090E0A0E8FD
:10152000BFE389879A87AB87BC8720E030E04AE732
:1015300055E469857A858B859C850E948715DC0139
:10154000CB018B8F9C8FAD8FBE8F20E030E040E8C9
:101550005FE36B8D7C8D8D8D9E8D0E949C14882306
:101560002CF481E090E098A38F8F3FC020E03FEF04
:101570004FE757E46B8D7C8D8D8D9E8D0E9482157B
:1015800018164CF520E030E040E251E469857A8598
:101590008B859C850E948715DC01CB01BC01CD01A8
:1015A0000E94A114DC01CB0198A38F8F0FC080E9AA
:1015B00091E09AA389A389A19AA10197F1F79AA32F
:1015C00089A38F8D98A1019798A38F8F8F8D98A154
:1015D000892B69F714C06B8D7C8D8D8D9E8D0E943B
:1015E000A114DC01CB0198A38F8F8F8D98A19CA3B0
:1015F0008BA38BA19CA10197F1F79CA38BA381E006
:101600000E94E10C80E090E0A0EAB0E48D879E8724
:10161000AF87B88B20E030E04AE755E46D857E85E2
:101620008F8598890E948715DC01CB01898B9A8B65
:10163000AB8BBC8B20E030E040E85FE369897A89BE
:101640008B899C890E949C1488232CF481E090E073
:101650009E8B8D8B3FC020E03FEF4FE757E46989B9
:101660007A898B899C890E94821518164CF520E096
:1016700030E040E251E46D857E858F8598890E9437
:101680008715DC01CB01BC01CD010E94A114DC0156
:10169000CB019E8B8D8B0FC080E991E0988F8F8B53
:1016A0008F89988D0197F1F7988F8F8B8D899E89FF
:1016B00001979E8B8D8B8D899E89892B69F714C02C
:1016C00069897A898B899C890E94A114DC01CB01EC
:1016D0009E8B8D8B8D899E899A8F898F898D9A8D0E
:1016E0000197F1F79A8F898F86E00E94E10C000044
:1016F000E8960FB6F894DEBF0FBECDBFDF91CF9155
:101700000895CF93DF93CDB7DEB76D970FB6F894FA
:10171000DEBF0FBECDBF8D8F8D8D82958F70817096
:10172000682F84E00E94BD0E8D8D8295869587700E
:101730008170682F85E00E94BD0E8D8D8295869503
:10174000869583708170682F86E00E94BD0E8D8D16
:10175000881F8827881F682F87E00E94BD0E61E0E0
:101760008BE00E94BD0E80E090E0A0E8BFE389839B
:101770009A83AB83BC8320E030E04AE755E469817B
:101780007A818B819C810E948715DC01CB018B8B38
:101790009C8BAD8BBE8B20E030E040E85FE36B8933
:1017A0007C898D899E890E949C1488232CF481E079
:1017B00090E0988F8F8B3FC020E03FEF4FE757E4DA
:1017C0006B897C898D899E890E94821518164CF53B
:1017D00020E030E040E251E469817A818B819C8194
:1017E0000E948715DC01CB01BC01CD010E94A11430
:1017F000DC01CB01988F8F8B0FC080E991E09A8F2D
:10180000898F898D9A8D0197F1F79A8F898F8F89AA
:10181000988D0197988F8F8B8F89988D892B69F779
:1018200014C06B897C898D899E890E94A114DC017A
:10183000CB01988F8F8B8F89988D9C8F8B8F8B8D01
:101840009C8D0197F1F79C8F8B8F60E08BE00E945D
:10185000BD0E8D8D8170682F84E00E94BD0E8D8D30
:1018600086958170682F85E00E94BD0E8D8D8695CE
:1018700086958170682F86E00E94BD0E8D8D8695BD
:10188000869586958170682F87E00E94BD0E61E085
:101890008BE00E94BD0E80E090E0A0E8BFE38D8366
:1018A0009E83AF83B88720E030E04AE755E46D813E
:1018B0007E818F8198850E948715DC01CB01898705
:1018C0009A87AB87BC8720E030E040E85FE369851A
:1018D0007A858B859C850E949C1488232CF481E05A
:1018E00090E09E878D873FC020E03FEF4FE757E4B1
:1018F00069857A858B859C850E94821518164CF522
:1019000020E030E040E251E46D817E818F81988556
:101910000E948715DC01CB01BC01CD010E94A114FE
:10192000DC01CB019E878D870FC080E991E0988B09
:101930008F878F8598890197F1F7988B8F878D8591
:101940009E8501979E878D878D859E85892B69F75A
:1019500014C069857A858B859C850E94A114DC0161
:10196000CB019E878D878D859E859A8B898B8989F2
:101970009A890197F1F79A8B898B60E08BE00E943E
:10198000BD0E00006D960FB6F894DEBF0FBECDBF42
:10199000DF91CF910895CF93DF931F92CDB7DEB73C
:1019A000898360E08AE00E94BD0E61E089E00E94C8
:1019B000BD0E89810E94810B00000F90DF91CF91B5
:1019C0000895CF93DF931F92CDB7DEB7898360E090
:1019D0008AE00E94BD0E60E089E00E94BD0E898110
:1019E0000E94810B00000F90DF91CF910895CF935B
:1019F000DF9300D01F92CDB7DEB79B838A83198215
:101A00000EC08981882F90E02A813B81820F931F2D
:101A1000FC0180810E94CB0C89818F5F8983898141
:101A2000882F90E02A813B81820F931FFC018081E7
:101A3000882339F700000F900F900F90DF91CF911E
:101A40000895CF93DF93CDB7DEB72E970FB6F894F6
:101A5000DEBF0FBECDBF81E00E94E10C80E090E0D0
:101A6000A0E8BFE389839A83AB83BC8320E030E0A6
:101A70004AE755E469817A818B819C810E948715B0
:101A8000DC01CB018D839E83AF83B88720E030E0FB
:101A900040E85FE36D817E818F8198850E949C1470
:101AA00088232CF481E090E09A8789873FC020E06A
:101AB0003FEF4FE757E46D817E818F8198850E94CB
:101AC000821518164CF520E030E040E251E46981BF
:101AD0007A818B819C810E948715DC01CB01BC013E
:101AE000CD010E94A114DC01CB019A8789870FC028
:101AF00080E991E09C878B878B859C850197F1F726
:101B00009C878B8789859A8501979A87898789859C
:101B10009A85892B69F714C06D817E818F819885A4
:101B20000E94A114DC01CB019A87898789859A8557
:101B30009E878D878D859E850197F1F79E878D877E
:101B400000002E960FB6F894DEBF0FBECDBFDF911A
:101B5000CF910895CF93DF9300D0CDB7DEB78983BF
:101B60006A838A81813029F4898180580E94E10C3E
:101B700007C08A81823021F4898180540E94E10C5F
:101B800000000F900F90DF91CF910895CF93DF93D6
:101B9000CDB7DEB787E290E027E230E0F90120819F
:101BA0002064FC01208387E290E027E230E0F90125
:101BB00020812F77FC01208386E290E026E230E04E
:101BC000F90120812160FC01208386E290E026E279
:101BD00030E0F90120812260FC01208386E290E060
:101BE00026E230E0F90120812460FC01208386E2B6
:101BF00090E026E230E0F90120812068FC0120839A
:101C00000000DF91CF910895CF93DF931F92CDB75E
:101C1000DEB789838981882371F587E290E027E226
:101C200030E0F90120812E7FFC01208387E290E0E3
:101C300027E230E0F90120812D7FFC01208387E23B
:101C400090E027E230E0F90120812B7FFC01208326
:101C500087E290E027E230E0F9012081277FFC0154
:101C6000208387E290E027E230E0F90120812F7E97
:101C7000FC01208361C08981813071F587E290E0A9
:101C800027E230E0F90120812160FC01208387E216
:101C900090E027E230E0F90120812D7FFC012083D4
:101CA00087E290E027E230E0F90120812B7FFC0100
:101CB000208387E290E027E230E0F9012081277F4E
:101CC000FC01208387E290E027E230E0F9012081E7
:101CD0002F7EFC01208330C08981823069F587E244
:101CE00090E027E230E0F90120812E7FFC01208383
:101CF00087E290E027E230E0F90120812260FC01D8
:101D0000208387E290E027E230E0F90120812B7FF9
:101D1000FC01208387E290E027E230E0F901208196
:101D2000277FFC01208387E290E027E230E0F90181
:101D300020812F7EFC01208386E290E026E230E0C5
:101D4000F90120812064FC012083000086E290E0FC
:101D5000FC0180818295869586958370882F90E01E
:101D600081709927892B91F784E290E0FC018081B2
:101D700091810F90DF91CF910895CF93DF9300D0A1
:101D8000CDB7DEB789836A838981883090F58A81EF
:101D90008130A9F48BE390E02BE330E0F90120815E
:101DA000622F2981422F50E021E030E002C0220F53
:101DB000331F4A95E2F7262BFC012083CDC08A8190
:101DC000882309F0C9C08BE390E02BE330E0F901F0
:101DD0002081622F2981422F50E021E030E002C0B3
:101DE000220F331F4A95E2F720952623FC0120831A
:101DF000B3C089818830C0F189818031A8F589819B
:101E0000885089838A818130A9F488E390E028E3AF
:101E100030E0F9012081622F2981422F50E021E03A
:101E200030E002C0220F331F4A95E2F7262BFC0157
:101E300020838FC08A81882309F08BC088E390E0DB
:101E400028E330E0F9012081622F2981422F50E000
:101E500021E030E002C0220F331F4A95E2F72095BF
:101E60002623FC01208375C089818031C0F18981DE
:101E70008931A8F58981805189838A818130A9F4CB
:101E800085E390E025E330E0F9012081622F29818C
:101E9000422F50E021E030E002C0220F331F4A956C
:101EA000E2F7262BFC01208356C08A81882309F0A3
:101EB00052C085E390E025E330E0F9012081622FF4
:101EC0002981422F50E021E030E002C0220F331F71
:101ED0004A95E2F720952623FC0120833CC08981A6
:101EE0008831D0F189818032B8F589818851898320
:101EF0008A818130A9F482E390E022E330E0F901A5
:101F00002081622F2981422F50E021E030E002C081
:101F1000220F331F4A95E2F7262BFC0120831CC0B9
:101F20008A818823C9F482E390E022E330E0F9015A
:101F30002081622F2981422F50E021E030E002C051
:101F4000220F331F4A95E2F720952623FC012083B8
:101F500003C0000001C0000000000F900F90DF914F
:101F6000CF910895CF93DF9300D0CDB7DEB78983AB
:101F70006A838981883090F58A818130A9F48AE367
:101F800090E02AE330E0F9012081622F2981422F7D
:101F900050E021E030E002C0220F331F4A95E2F703
:101FA000262BFC012083CDC08A81882309F0C9C07B
:101FB0008AE390E02AE330E0F9012081622F298151
:101FC000422F50E021E030E002C0220F331F4A953B
:101FD000E2F720952623FC012083B3C08981883055
:101FE000C0F189818031A8F58981885089838A81EF
:101FF0008130A9F487E390E027E330E0F901208104
:10200000622F2981422F50E021E030E002C0220FF0
:10201000331F4A95E2F7262BFC0120838FC08A816B
:10202000882309F08BC087E390E027E330E0F901D3
:102030002081622F2981422F50E021E030E002C050
:10204000220F331F4A95E2F720952623FC012083B7
:1020500075C089818031C0F189818831A8F5898175
:10206000805189838A818130A9F484E390E024E35C
:1020700030E0F9012081622F2981422F50E021E0D8
:1020800030E002C0220F331F4A95E2F7262BFC01F5
:10209000208356C08A81882309F052C084E390E0EF
:1020A00024E330E0F9012081622F2981422F50E0A2
:1020B00021E030E002C0220F331F4A95E2F720955D
:1020C0002623FC0120833CC089818831D0F189819D
:1020D0008032B8F58981885189838A818130A9F459
:1020E00081E390E021E330E0F9012081622F298132
:1020F000422F50E021E030E002C0220F331F4A950A
:10210000E2F7262BFC0120831CC08A818823C9F4B6
:1021100081E390E021E330E0F9012081622F298101
:10212000422F50E021E030E002C0220F331F4A95D9
:10213000E2F720952623FC01208303C0000001C0A4
:10214000000000000F900F90DF91CF910895CF9382
:10215000DF931F92CDB7DEB789838981883080F401
:1021600089E390E0FC018081882F90E02981222F73
:1021700030E002C0959587952A95E2F781704BC0B3
:1021800089818830B0F08981803198F489818850C4
:10219000898386E390E0FC018081882F90E029818B
:1021A000222F30E002C0959587952A95E2F781703D
:1021B00032C089818031B0F08981883198F4898179
:1021C0008051898383E390E0FC018081882F90E037
:1021D0002981222F30E002C0959587952A95E2F754
:1021E000817019C089818831B0F08981803298F47A
:1021F00089818851898380E390E0FC018081882F68
:1022000090E02981222F30E002C0959587952A958C
:10221000E2F7817000C00F90DF91CF910895CF93C6
:10222000DF931F92CDB7DEB7898361E089810E9479
:10223000BD0E00000F90DF91CF910895CF93DF93F3
:102240001F92CDB7DEB789838981882399F485E50C
:1022500090E025E530E0F90120812E7FFC0120830C
:1022600085E590E025E530E0F90120812D7FFC0136
:10227000208341C08981813099F485E590E025E58E
:1022800030E0F90120812160FC01208385E590E0A8
:1022900025E530E0F90120812D7FFC0120832BC052
:1022A0008981823099F485E590E025E530E0F901F7
:1022B00020812E7FFC01208385E590E025E530E03C
:1022C000F90120812260FC01208315C089818330BF
:1022D00091F485E590E025E530E0F9012081216069
:1022E000FC01208385E590E025E530E0F9012081BF
:1022F0002260FC0120838BE590E02BE530E0F901C2
:1023000020812064FC01208300000F90DF91CF9199
:102310000895CF93DF9300D0CDB7DEB79A8389833A
:1023200089819A819093F8018093F70100000F90C2
:102330000F90DF91CF9108951F920F9200905F0050
:102340000F9211242F933F934F935F936F937F933B
:102350008F939F93AF93BF93EF93FF93CF93DF93AD
:10236000CDB7DEB78091F7019091F801FC01099596
:102370000000DF91CF91FF91EF91BF91AF919F91BD
:102380008F917F916F915F914F913F912F910F901E
:1023900000925F000F901F9018951F920F9200906F
:1023A0005F000F9211242F933F934F935F936F938E
:1023B0007F938F939F93AF93BF93EF93FF93CF93AD
:1023C000DF93CDB7DEB78091FB019091FC01FC015A
:1023D00009950000DF91CF91FF91EF91BF91AF91EF
:1023E0009F918F917F916F915F914F913F912F912D
:1023F0000F9000925F000F901F9018951F920F9200
:1024000000905F000F9211242F933F934F935F939F
:102410006F937F938F939F93AF93BF93EF93FF93AC
:10242000CF93DF93CDB7DEB78091F9019091FA0198
:10243000FC0109950000DF91CF91FF91EF91BF91D1
:10244000AF919F918F917F916F915F914F913F914C
:102450002F910F9000925F000F901F901895CF93CF
:10246000DF93CDB7DEB78FE590E02FE530E0F901DF
:1024700020812068FC0120830000DF91CF91089526
:10248000CF93DF931F92CDB7DEB7898389818130E7
:1024900041F08981882329F482E290E020EAFC015E
:1024A000208386E590E026E530E0F9012081246074
:1024B000FC01208380E290E028E4FC0120830000FE
:1024C0000F90DF91CF910895CF93DF93CDB7DEB713
:1024D0008DE290E02DE230E0F90120812061FC01E5
:1024E000208361E08DE00E94B20F61E08FE00E94E6
:1024F000B20F60E08EE00E94B20F61E08CE00E94BB
:10250000B20F8DE290E02DE230E0F90120812064ED
:10251000FC0120830000DF91CF910895CF93DF93DA
:102520001F92CDB7DEB7898361E08CE00E94BD0EBB
:1025300060E08CE00E94BD0E8FE290E02981FC01FA
:10254000208300008EE290E0FC018081881F8827B4
:10255000881F882F90E081709927892B99F30000BC
:102560000F90DF91CF910895CF93DF93CDB7DEB772
:1025700083E590E023E530E0F90120812F7BFC0129
:10258000208383E590E023E530E0F9012081277F77
:10259000FC01208389E590E029E530E0F901208104
:1025A0002160FC0120830000DF91CF910895CF933B
:1025B000DF931F92CDB7DEB7898389818823E1F449
:1025C00083E590E023E530E0F90120812160FC0102
:1025D000208383E590E023E530E0F90120812D7F21
:1025E000FC01208383E590E023E530E0F9012081C0
:1025F0002B7FFC0120837BC089818130E1F483E55E
:1026000090E023E530E0F90120812E7FFC0120835A
:1026100083E590E023E530E0F90120812260FC01B0
:10262000208383E590E023E530E0F90120812B7FD2
:10263000FC0120835CC089818230E1F483E590E075
:1026400023E530E0F90120812160FC01208383E54E
:1026500090E023E530E0F90120812260FC01208335
:1026600083E590E023E530E0F90120812B7FFC0138
:1026700020833DC089818330E1F483E590E023E548
:1026800030E0F90120812E7FFC01208383E590E07A
:1026900023E530E0F90120812D7FFC01208383E5D3
:1026A00090E023E530E0F90120812460FC012083E3
:1026B0001EC089818430D9F483E590E023E530E0C1
:1026C000F90120812160FC01208383E590E023E56E
:1026D00030E0F90120812D7FFC01208383E590E02B
:1026E00023E530E0F90120812460FC012083000013
:1026F0000F90DF91CF910895CF93DF9300D0CDB7A6
:10270000DEB79A83898389819A81909300028093AE
:10271000FF0100000F900F90DF91CF9108951F925D
:102720000F9200905F000F9211242F933F934F93CD
:102730005F936F937F938F939F93AF93BF93EF9329
:10274000FF93CF93DF93CDB7DEB78091FF019091D8
:102750000002FC0109950000DF91CF91FF91EF91FC
:10276000BF91AF919F918F917F916F915F914F91A9
:102770003F912F910F9000925F000F901F9018953E
:102780001F920F9200905F000F9211242F933F939E
:102790004F935F936F937F938F939F93AF93BF9369
:1027A000EF93FF93CF93DF93CDB7DEB78091FD0119
:1027B0009091FE01FC0109950000DF91CF91FF91FE
:1027C000EF91BF91AF919F918F917F916F915F91A9
:1027D0004F913F912F910F9000925F000F901F90AB
:1027E0001895CF93DF931F92CDB7DEB78AE290E0C2
:1027F0002AE230E0F90120812061FC0120838AE295
:1028000090E02AE230E0F90120812860FC01208379
:1028100080E889838AE290E02AE230E0F9012081B1
:102820002460FC012083898184608983898184609C
:1028300089838981877F898389818F7E8983898143
:102840008F7D898380E490E02981FC01208389E2E7
:1028500090E027E6FC01208300000F90DF91CF91EC
:102860000895CF93DF931F92CDB7DEB78983000021
:102870008BE290E0FC018081829586958770882F9D
:1028800090E081709927892B99F38CE290E029815F
:10289000FC01208300000F90DF91CF910895CF932A
:1028A000DF9300D01F92CDB7DEB79B838A83198256
:1028B0000EC08981882F90E02A813B81820F931F6F
:1028C000FC0180810E94311489818F5F8983898115
:1028D000882F90E02A813B81820F931FFC01808129
:1028E000882339F700000F900F900F90DF91CF9160
:1028F0000895CF93DF9300D0CDB7DEB71A82198247
:1029000005C089819A8101969A8389838BE290E040
:10291000FC018081881F8827881F882F90E08170A4
:102920009927892B71F38CE290E0FC0180810F9054
:102930000F90DF91CF9108950E940D1508F481E06A
:1029400008950E94611588F09F5798F0B92F992734
:10295000B751B0F0E1F0660F771F881F991F1AF08A
:10296000BA95C9F714C0B13091F00E947B15B1E05F
:1029700008950C947B15672F782F8827B85F39F05E
:10298000B93FCCF3869577956795B395D9F73EF423
:1029900090958095709561957F4F8F4F9F4F0895CB
:1029A000E89409C097FB3EF49095809570956195E9
:1029B0007F4F8F4F9F4F9923A9F0F92F96E9BB279F
:1029C0009395F695879577956795B795F111F8CF1B
:1029D000FAF4BB0F11F460FF1BC06F5F7F4F8F4F86
:1029E0009F4F16C0882311F096E911C0772321F07C
:1029F0009EE8872F762F05C0662371F096E8862F14
:102A000070E060E02AF09A95660F771F881FDAF76A
:102A1000880F9695879597F90895990F0008550F97
:102A2000AA0BE0E8FEEF16161706E807F907C0F054
:102A300012161306E407F50798F0621B730B840B5C
:102A4000950B39F40A2661F0232B242B252B21F436
:102A500008950A2609F4A140A6958FEF811D811DD6
:102A6000089597F99F6780E870E060E008959FEF10
:102A700080EC089500240A94161617061806090615
:102A8000089500240A9412161306140605060895E4
:102A9000092E0394000C11F4882352F0BB0F40F46C
:102AA000BF2B11F460FF04C06F5F7F4F8F4F9F4FAC
:102AB000089557FD9058440F551F59F05F3F71F02E
:102AC0004795880F97FB991F61F09F3F79F0879595
:102AD0000895121613061406551FF2CF4695F1DF1E
:102AE00008C0161617061806991FF1CF86957105AE
:102AF000610508940895E894BB2766277727CB01E2
:102B000097F908950E940D1508F48FEF08950E941B
:102B10009A150C9448150E943A1538F00E944115F8
:102B200020F0952311F00C9431150C9437151124D5
:102B30000C947C150E94591570F3959FC1F3950F65
:102B400050E0551F629FF001729FBB27F00DB11D31
:102B5000639FAA27F00DB11DAA1F649F6627B00DC1
:102B6000A11D661F829F2227B00DA11D621F739FAA
:102B7000B00DA11D621F839FA00D611D221F749FB8
:102B80003327A00D611D231F849F600D211D822FFF
:102B9000762F6A2F11249F5750409AF0F1F0882326
:102BA0004AF0EE0FFF1FBB1F661F771F881F915053
:102BB0005040A9F79E3F510580F00C9431150C94BC
:102BC0007C155F3FE4F3983ED4F38695779567953F
:102BD000B795F795E7959F5FC1F7FE2B880F911D7D
:102BE0009695879597F90895FB01DC018D910190E9
:0E2BF00080190110D9F3990B0895F894FFCFC6
:102BFE0077616974696E672061646D696E206170BA
:102C0E0070726F76616C2E2E2E0D0077656C636F71
:102C1E006D650D00577269746520746865206E7558
:102C2E006D626572206F6620746865206C65642025
:102C3E007468656E206F6E206F72206F66662074EA
:102C4E006F20636F6E74726F6C2069740D507265B5
:102C5E0073732061206E756D626572206265747784
:102C6E0065656E203120616E64203520746F20639F
:102C7E006F6E74726F6C207468652064696D6D6917
:102C8E006E670D5772697465206F666620746F20CB
:102C9E007475726E2064696D6D6572206F66660D57
:102CAE005072657373207320746F207369676E6F33
:102CBE0075740D006F66660031003200330034000B
:102CCE00350031206F6E0032206F6E0033206F6E34
:102CDE000034206F6E0035206F6E0031206F6666F7
:102CEE000032206F66660033206F66660034206FF8
:102CFE0066660035206F6666007300416363657318
:102D0E00732044656E6965640057726F6E67205557
:102D1E007365726E616D65206F722050617373778B
:102D2E006F726400757365723D0070617373776FB7
:102D3E0072643D0057656C636F6D6500312D310017
:102D4E00322D3100332D3100342D3100352D31002F
:102D5E00312D3000322D3000332D3000342D300027
:102D6E00352D3000362D3000362D3100362D330006
:102D7E00362D3400362D3500362D3200300065727A
:042D8E00726F7200EE
:00000001FF
