:100000000C942A000C94B0040C94E1040C94120596
:100010000C9447000C9447000C9447000C94470044
:100020000C9447000C9447000C94C2050C94910565
:100030000C9447000C9447000C9447000C94470024
:100040000C9447000C9447000C9447000C94470014
:100050000C94470011241FBECFE5D8E0DEBFCDBF12
:1000600010E0A0E6B0E0E6E7FFE002C005900D92E8
:10007000AE39B107D9F720E0AEE9B0E001C01D927A
:10008000A83AB207E1F70E9449000C94B9070C9412
:1000900000001F93CF93DF93CDB7DEB7C454D109CF
:1000A0000FB6F894DEBF0FBECDBF61E08BE10E94BA
:1000B000BB030E9467050E94F30581E00E9443058F
:1000C00085E0E8E9F0E0DE01989601900D928A95CE
:1000D000E1F781E392E39EA78DA783E394E398ABD6
:1000E0008FA761E08BE10E94BB031A82198285C051
:1000F00049815A819E01285D3F4F89819A81820FF3
:10010000931FFC018081BA010E94700280E090E0A0
:10011000A0EAB1E4888B998BAA8BBB8B20E030E0FE
:100120004AE755E4688979898A899B890E944C0746
:10013000DC01CB018C8B9D8BAE8BBF8B20E030E044
:1001400040E85FE36C897D898E899F890E949E06C5
:1001500088232CF481E090E0998F888F3FC020E0C5
:100160003FEF4FE757E46C897D898E899F890E9414
:10017000470718164CF520E030E040E251E468896A
:1001800079898A899B890E944C07DC01CB01BC01DB
:10019000CD010E94A306DC01CB01998F888F0FC08F
:1001A00080E991E09B8F8A8F8A8D9B8D0197F1F773
:1001B0009B8F8A8F888D998D0197998F888F888DD5
:1001C000998D892B69F714C06C897D898E899F89E7
:1001D0000E94A306DC01CB01998F888F888D998DB1
:1001E0009D8F8C8F8C8D9D8D0197F1F79D8F8C8FBE
:1001F00089819A8101969A83898389819A81059759
:100200000CF476CF1C821B8285E090E09E838D8368
:100210008AC04D815E819E01235D3F4F8B819C8111
:10022000820F931FFC018081BA010E94700280E05E
:1002300090E0A0EAB1E48C879D87AE87BF8720E07D
:1002400030E04AE755E46C857D858E859F850E9468
:100250004C07DC01CB018E8F9F8FA8A3B9A320E0B0
:1002600030E040E85FE36E8D7F8D88A199A10E9408
:100270009E0688232CF481E090E09BA38AA33FC0D4
:1002800020E03FEF4FE757E46E8D7F8D88A199A165
:100290000E94470718164CF520E030E040E251E498
:1002A0006C857D858E859F850E944C07DC01CB0186
:1002B000BC01CD010E94A306DC01CB019BA38AA354
:1002C0000FC080E991E09DA38CA38CA19DA1019713
:1002D000F1F79DA38CA38AA19BA101979BA38AA35D
:1002E0008AA19BA1892B69F714C06E8D7F8D88A18F
:1002F00099A10E94A306DC01CB019BA38AA38AA13A
:100300009BA19FA38EA38EA19FA10197F1F79FA30D
:100310008EA38B819C8101969C838B838D819E8192
:1003200001969E838D838B819C8104970CF471CF01
:100330001AAA19AA28E0CE01C396FC01322F119205
:100340003A95E9F71CAE1BAE28E0CE01CD96FC0134
:10035000322F11923A95E9F71F82188619861A866C
:100360001B8680E690E00E94510617C00E947B0623
:100370008A878A858D3389F08F81882F90E09E014E
:100380002F5C3F4F820F931F2A85FC0120838885B5
:100390008F5F88878F818F5F8F838A858D3331F759
:1003A0008885882F90E001969E012F5C3F4F820F39
:1003B000931FFC01108218861F821A868DE00E940E
:1003C00033068AE00E94330686E690E00E945106DA
:1003D00017C00E947B068A878A858D3389F08F81BA
:1003E000882F90E09E01255C3F4F820F931F2A8546
:1003F000FC01208389858F5F89878F818F5F8F8341
:100400008A858D3331F78985882F90E001969E018A
:10041000255C3F4F820F931FFC01108219861F82BB
:100420001A868DE00E9433068AE00E9433068DE032
:100430000E9433068AE00E94330619A980E090E00A
:100440000E94F802181709F03DC01AA981E090E057
:100450000E94F8021817B1F51BA982E090E00E94F3
:10046000F802181779F51CA983E090E00E94F802C1
:10047000181741F51DA984E090E00E94F8021817B2
:1004800009F51BAD85E090E00E94F8021817D1F441
:100490001CAD86E090E00E94F802181799F41DAD9B
:1004A00087E090E00E94F802181761F41EAD88E022
:1004B00090E00E94F802181729F480E790E00E946B
:1004C000510607C08DE790E00E9451068B858F5F33
:1004D0008B878DE00E9433068AE00E94330641CF6D
:1004E000CF93DF93CDB7DEB727970FB6F894DEBF73
:1004F0000FBECDBF8D837F836E8386E590E024EAB7
:10050000FC012083000086E590E0FC018081881FCB
:100510008827881F882F90E081709927892B99F36D
:100520008E819F81882797709A83898389819A8198
:10053000880F892F881F990B91958B838B81806AF7
:100540008C8383E290E02C81FC01208386E590E09F
:1005500024E8FC012083000086E590E0FC01808116
:10056000881F8827881F882F90E081709927892B02
:1005700099F383E290E02E81FC01208386E590E0F0
:1005800024E8FC012083000086E590E0FC018081E6
:10059000881F8827881F882F90E081709927892BD2
:1005A00099F383E290E02D81FC01208386E590E0C1
:1005B00024E8FC012083000086E590E0FC018081B6
:1005C000881F8827881F882F90E081709927892BA2
:1005D00099F386E590E024E9FC012083000027964A
:1005E0000FB6F894DEBF0FBECDBFDF91CF91089557
:1005F000CF93DF93CDB7DEB727970FB6F894DEBF62
:100600000FBECDBF9F838E8386E590E024EAFC0178
:100610002083000086E590E0FC018081881F882708
:10062000881F882F90E081709927892B99F38E81FC
:100630009F81882797709A83898389819A81880FFF
:10064000892F881F990B91958B838B81806A8C836E
:1006500083E290E02C81FC01208386E590E024E891
:10066000FC012083000086E590E0FC018081881F6A
:100670008827881F882F90E081709927892B99F30C
:1006800083E290E02E81FC01208386E590E024E85F
:10069000FC012083000086E590E0FC018081881F3A
:1006A0008827881F882F90E081709927892B99F3DC
:1006B00086E590E024EAFC012083000086E590E0D6
:1006C000FC018081881F8827881F882F90E0817017
:1006D0009927892B99F38E819F81882797709A8318
:1006E000898389819A81880F892F881F990B919519
:1006F0008B838B81816A8C8383E290E02C81FC0167
:10070000208386E590E024E8FC012083000086E554
:1007100090E0FC018081881F8827881F882F90E047
:1007200081709927892B99F386E590E024E8FC01F4
:100730002083000086E590E0FC018081881F8827E7
:10074000881F882F90E081709927892B99F383E285
:1007500090E0FC0180818D8386E590E024E9FC0136
:1007600020838D8127960FB6F894DEBF0FBECDBFD4
:10077000DF91CF910895CF93DF9300D0CDB7DEB74F
:1007800089836A838981883090F58A818130A9F4D0
:100790008AE390E02AE330E0F9012081622F298189
:1007A000422F50E021E030E002C0220F331F4A9573
:1007B000E2F7262BFC012083CDC08A81882309F033
:1007C000C9C08AE390E02AE330E0F9012081622F7A
:1007D0002981422F50E021E030E002C0220F331F78
:1007E0004A95E2F720952623FC012083B3C0898136
:1007F0008830C0F189818031A8F58981885089834A
:100800008A818130A9F487E390E027E330E0F901A1
:100810002081622F2981422F50E021E030E002C088
:10082000220F331F4A95E2F7262BFC0120838FC04D
:100830008A81882309F08BC087E390E027E330E0CA
:10084000F9012081622F2981422F50E021E030E020
:1008500002C0220F331F4A95E2F720952623FC01A0
:10086000208375C089818031C0F189818831A8F5E4
:100870008981805189838A818130A9F484E390E061
:1008800024E330E0F9012081622F2981422F50E0DA
:1008900021E030E002C0220F331F4A95E2F7262BF9
:1008A000FC01208356C08A81882309F052C084E36A
:1008B00090E024E330E0F9012081622F2981422F6A
:1008C00050E021E030E002C0220F331F4A95E2F7EA
:1008D00020952623FC0120833CC089818831D0F1FA
:1008E00089818032B8F58981885189838A818130F4
:1008F000A9F481E390E021E330E0F9012081622F47
:100900002981422F50E021E030E002C0220F331F46
:100910004A95E2F7262BFC0120831CC08A8188239C
:10092000C9F481E390E021E330E0F9012081622FF6
:100930002981422F50E021E030E002C0220F331F16
:100940004A95E2F720952623FC01208303C000008E
:1009500001C0000000000F900F90DF91CF9108952B
:100960001F920F9200905F000F9211242F933F93DC
:100970004F935F936F937F938F939F93AF93BF93A7
:10098000EF93FF93CF93DF93CDB7DEB780919E00B7
:1009900090919F00FC0109950000DF91CF91FF919C
:1009A000EF91BF91AF919F918F917F916F915F91E7
:1009B0004F913F912F910F9000925F000F901F90E9
:1009C00018951F920F9200905F000F9211242F93A1
:1009D0003F934F935F936F937F938F939F93AF93C7
:1009E000BF93EF93FF93CF93DF93CDB7DEB78091A3
:1009F000A2009091A300FC0109950000DF91CF9126
:100A0000FF91EF91BF91AF919F918F917F916F91E6
:100A10005F914F913F912F910F9000925F000F9047
:100A20001F9018951F920F9200905F000F92112453
:100A30002F933F934F935F936F937F938F939F93E6
:100A4000AF93BF93EF93FF93CF93DF93CDB7DEB711
:100A50008091A0009091A100FC0109950000DF9118
:100A6000CF91FF91EF91BF91AF919F918F917F9126
:100A70006F915F914F913F912F910F9000925F0086
:100A80000F901F901895CF93DF931F92CDB7DEB7CD
:100A900089838981813041F08981882329F482E228
:100AA00090E020EAFC01208386E590E026E530E036
:100AB000F90120812460FC01208380E290E028E499
:100AC000FC01208300000F90DF91CF910895CF9318
:100AD000DF93CDB7DEB78DE290E02DE230E0F90193
:100AE00020812061FC01208361E08DE00E94BB0336
:100AF00061E08FE00E94BB0360E08EE00E94BB03D8
:100B000061E08CE00E94BB038DE290E02DE230E0DA
:100B1000F90120812064FC0120830000DF91CF9146
:100B200008951F920F9200905F000F9211242F934F
:100B30003F934F935F936F937F938F939F93AF9365
:100B4000BF93EF93FF93CF93DF93CDB7DEB7809141
:100B5000A6009091A700FC0109950000DF91CF91BC
:100B6000FF91EF91BF91AF919F918F917F916F9185
:100B70005F914F913F912F910F9000925F000F90E6
:100B80001F9018951F920F9200905F000F921124F2
:100B90002F933F934F935F936F937F938F939F9385
:100BA000AF93BF93EF93FF93CF93DF93CDB7DEB7B0
:100BB0008091A4009091A500FC0109950000DF91AF
:100BC000CF91FF91EF91BF91AF919F918F917F91C5
:100BD0006F915F914F913F912F910F9000925F0025
:100BE0000F901F901895CF93DF931F92CDB7DEB76C
:100BF0008AE290E02AE230E0F90120812061FC01E4
:100C000020838AE290E02AE230E0F9012081286026
:100C1000FC01208380E889838AE290E02AE230E0C8
:100C2000F90120812460FC0120838981846089830B
:100C30008981846089838981877F898389818F7E87
:100C4000898389818F7D898380E490E02981FC01FB
:100C5000208389E290E027E6FC01208300000F90CA
:100C6000DF91CF910895CF93DF931F92CDB7DEB779
:100C7000898300008BE290E0FC018081829586955B
:100C80008770882F90E081709927892B99F38CE2E7
:100C900090E02981FC01208300000F90DF91CF912B
:100CA0000895CF93DF9300D01F92CDB7DEB79B831B
:100CB0008A8319820EC08981882F90E02A813B8126
:100CC000820F931FFC0180810E94330689818F5F10
:100CD00089838981882F90E02A813B81820F931F2D
:100CE000FC018081882339F700000F900F900F904E
:100CF000DF91CF910895CF93DF9300D0CDB7DEB7CA
:100D00001A82198205C089819A8101969A83898302
:100D10008BE290E0FC018081881F8827881F882F44
:100D200090E081709927892B71F38CE290E0FC01AF
:100D300080810F900F90DF91CF9108950E94D2068D
:100D400008F481E008950E94260788F09F5798F0E4
:100D5000B92F9927B751B0F0E1F0660F771F881FC0
:100D6000991F1AF0BA95C9F714C0B13091F00E94DA
:100D70004007B1E008950C944007672F782F88272B
:100D8000B85F39F0B93FCCF3869577956795B39501
:100D9000D9F73EF490958095709561957F4F8F4F70
:100DA0009F4F0895990F0008550FAA0BE0E8FEEF3A
:100DB00016161706E807F907C0F012161306E4071F
:100DC000F50798F0621B730B840B950B39F40A2618
:100DD00061F0232B242B252B21F408950A2609F4F6
:100DE000A140A6958FEF811D811D089597F99F67FA
:100DF00080E870E060E008959FEF80EC08950024A3
:100E00000A941616170618060906089500240A946F
:100E100012161306140605060895092E0394000CF5
:100E200011F4882352F0BB0F40F4BF2B11F460FF84
:100E300004C06F5F7F4F8F4F9F4F089557FD9058AD
:100E4000440F551F59F05F3F71F04795880F97FB8E
:100E5000991F61F09F3F79F0879508951216130648
:100E60001406551FF2CF4695F1DF08C01616170677
:100E70001806991FF1CF86957105610508940895AC
:100E8000E894BB2766277727CB0197F908950E943E
:100E9000D20608F48FEF08950E945F070C940D07A7
:100EA0000E94FF0638F00E94060720F0952311F0FB
:100EB0000C94F6060C94FC0611240C9441070E9435
:100EC0001E0770F3959FC1F3950F50E0551F629F69
:100ED000F001729FBB27F00DB11D639FAA27F00D93
:100EE000B11DAA1F649F6627B00DA11D661F829FBA
:100EF0002227B00DA11D621F739FB00DA11D621F9F
:100F0000839FA00D611D221F749F3327A00D611DBB
:100F1000231F849F600D211D822F762F6A2F11249D
:100F20009F5750409AF0F1F088234AF0EE0FFF1FD0
:100F3000BB1F661F771F881F91505040A9F79E3F27
:100F4000510580F00C94F6060C9441075F3FE4F3E2
:100F5000983ED4F3869577956795B795F795E7957D
:100F60009F5FC1F7FE2B880F911D9695879597F986
:060F70000895F894FFCF84
:100F7600757365723D0070617373776F72643D00BF
:100F860057656C636F6D6520486F6D650057726FAE
:100F96006E6720557365726E616D65206F722050A5
:0E0FA600617373776F72640061646D696E0031
:00000001FF
